:4000000000800020110000004D2100004D21000008B5044B1A6803F53F5302331A6002F0B5F800BFFA46004010B5054C237833B9044B13B10448AFF300800123237010BDEC
:400040005083FF1F00000000F0410000084B10B51BB108490848AFF300800848036803B910BD074B002BFBD0BDE81040184700BF000000005483FF1FF0410000C880FF1F8C
:400080000000000008B5002002F0CEFA08BD00BF684620F007018D4619B572B6EFF311841E4B1B68DBB20F2B10D9103B23F0030202F1604202F564421168DB0003F018038C
:4000C000E0229A400A4022FA03F306E00F2B03D1134B1B681B0E00E0002383F31188114A136801331360012B01D103F07BFA62B6FFF7C8FF72B684F3118802F099FC094AEE
:400100001368013B13601BB903F075FA03F039FA62B6BDE819408546704700BF04ED00E020ED00E0E084FF1F08B562B645F6BF52054B1A60054A136843F002031360002022
:4001400002F0B8FDFBE700BF14E000E010E000E030B5A1B072B602F0EBFE00F049FC00F0FFFD00F06FFE012000F09AFD6C46084D0FCD0FC495E8030044F8040B24F8021B7A
:40018000090C2170684601F06DF862B621B030BD1C42000070B594B0FFF7DAFF02F08AFE344A136843F005031360334E304600F049FB0AAC314D0FCD0FC40FCD0FC495E8CE
:4001C000030084E803000A962D4B0C9310936C460AAD0FCD0FC40FCD0FC495E8030084E80300284B1B6B93F82020012A02D1586A02F028FC234E34466D460FCD0FC40FCDBA
:400200000FC495E8030084E803000023F362022386F82830336B93F82020012A02D1586A02F0B6FD174B1B6B5D699B6873B13DB90CE0996855F8240002F09CFA013400E0F5
:400240000024104B1B6B1A699442F2D30A221146002002F06BF80F221421012002F066F8032001F0EFFF002001F0ECFF02F068FD14B070BD10E000E0DC80FF1FF4410000C7
:40028000CC80FF1FF880FF1F08B5042001F0DAFF022001F0D7FF052001F0D4FF08BD00BF00BFFDE730B5ABB0A34B1B88052B32D1A14A538801335380A04B9B6893F8202010
:4002C000012A02D1586A02F0BDFB9C4B05221A7000225A6002225A709B6893F82020012A02D1586A02F054FD944B9B685D699B6873B13DB90CE0996855F8240002F03AFA18
:40030000013400E000248D4B9B681A699442F2D30022894B1A80884B5B88F02B46D104252AAC04F8A85D864B1868CDF801009B88ADF80530834B07CBCDF81100CDF815109F
:40034000CDF819201B88ADF81D30204600F06AFB7A4B9B6893F82020012A02D1586A02F071FB764B1D7000225A6002225A709B6893F82020012A02D1586A02F009FD6F4B26
:400380009B685D699B6873B13DB90CE0996855F8240002F0EFF9013400E00024674B9B681A699442F2D30022634B5A80624A13880133138002F07AFF012804D15E4A93882F
:4003C000013393804CE05C4B9B88002B45D02AAA042302F8A83D5A4B1868CDF801009B88ADF80530584B03CBCDF81100CDF815101B788DF81930104600F014FB00224E4B1C
:400400009A804E4B9B6893F82020012A02D1586A02F018FB494B01221A7000225A6002225A709B6893F82020012A02D1586A02F0AFFC424B9B685D699B6873B13DB90CE0E1
:40044000996855F8240002F095F9013400E000243A4B9B681A699442F2D30022364B9A8002F02CFF012804D1334AD3880133D38075E0314BDA88531E9BB2132B30D800221B
:400480002D4BDA802D4B9B6893F82020012A02D1586A02F0D7FA294B02221A7000225A6002225A709B6893F82020012A02D1586A02F06EFC214B9B685D699B68002B4BD04D
:4004C0003DB949E0996855F8240002F053F9013400E00024194B9B681A699442F2D33BE0142A39D90022144BDA80144B9B6893F82020012A02D1586A02F0A4FA0F4B03222D
:400500001A7000225A6002225A709B6893F82020012A02D1586A02F03BFC084B9B685D699B68CBB195B917E0996855F8240002F021F901340BE000BF6C83FF1FEC80FF1FDC
:40054000344200003C4200004C4200000024054B9B681A699442E7D30022034BDA802BB030BD00BFEC80FF1F6C83FF1F70B5B4B04A4B1B6B93F82020012A02D1586A02F066
:4005800061FA464E2AAC35460FCD0FC40FCD0FC495E8030084E80300336B93F82020012A02D1586A02F0F4FB3D4B1D7829462A9800F066F904238DF800303A4C0FCCCDF805
:4005C0000100CDF80510CDF80920CDF80D302A4635490DF1110003F0E7F9684600F022FA2E4B1B6B93F82020012A02D1586A02F029FA2A4E2AAC35460FCD0FC40FCD0FC4E0
:4006000095E8030084E80300336B93F82020012A02D1586A02F0BCFB6C462AAD0FCD0FC40FCD0FC495E8030084E803001B4B1B6B93F82020012A02D1586A02F003FA174E58
:4006400034466D460FCD0FC40FCD0FC495E8030084E803000023F362022386F82830336B93F82020012A02D1586A02F091FB0B4B1B6B5D699B6873B13DB90CE0996855F8ED
:40068000240002F077F8013400E00024034B1B6B1A699442F2D334B070BD00BFF880FF1FEC80FF1F5C4200005842000070B594B0324B1B6B93F82020012A02D1586A02F079
:4006C000C1F92E4E0AAC35460FCD0FC40FCD0FC495E8030084E80300336B93F82020012A02D1586A02F054FB6C460AAD0FCD0FC40FCD0FC495E8030084E80300204B1B6B35
:4007000093F82020012A02D1586A02F09BF91C4E34466D460FCD0FC40FCD0FC495E8030084E803000023F362022386F82830336B93F82020012A02D1586A02F029FB104BB7
:400740001B6B5D699B6873B13DB90CE0996855F8240002F00FF8013400E00024084B1B6B1A699442F2D3064B93F82830022B03D10348036B5B68984714B070BDF880FF1F72
:400780002C81FF1F00B583B000230193012002F071F801A9032001F0CDFF019801F09CFF019A0121014800F07FFDEFE76C42000010B5084C22680121074800F05DFD2368C5
:4007C0000A33236013F5807F01D90022226002F0B7FA10BD7483FF1F7842000010B5084C22680121074800F047FD23680A33236013F5807F01D90022226002F0A1FA10BD03
:400800007883FF1F8442000008B5002001F00AFB02F096FA08BD00BF10B400230BE0046803EB43018A00A15AC289914201D118B206E001339BB282889342F0D34FF0FF30DA
:4008400010BC704738B50023C381836883B914E0A96804EB44029300CB5A33B904EB440293000B445B6803B198470134A4B201E005460024AB899C42EAD3002038BD00BFB1
:400880002DE9F04781468846B0F80EA0FFF7C4FFB0F1FF3F6FD0D9F8001000EB400293001A460B445D681DB113460B441E8900E00026002D63D0002E65D0002456E0274667
:4008C00004EB44029300EB5A43454DD104EB440293002B445B6813B19847012844D17A00D1198B0019462B449E680D446D88D9F8083093B916E0D9F8081004EB4402930065
:40090000CB5A9A4506D104EB4402930019448B6803B198470134A4B200E00024B9F80C309C42E8D306B1B047D9F8083093B916E0D9F8081004EB44029300CB5A9D4206D197
:4009400004EB4402930019444B6803B198470134A4B200E00024B9F80C309C42E8D3A9F80E500020BDE8F0870134A4B2A642A6D80020BDE8F0876FF01300BDE8F0876FF0A2
:400980001600BDE8F0876FF01600BDE8F08700BF38B504460D46032824D8DFE800F00209101E084602F076FC104B1D55002038BD084602F057FC0D4B1D55002038BD0846C0
:4009C00002F05CFC094B1D55002038BD29462046FFF7DEFF0134E4B200E00024022CF5D9002038BD6FF0130038BD00BF7C83FF1F38B50024254609E00021094B1955204659
:400A0000FFF7C6FF00B105460134E4B2022CF3D902F026FB02F09EFB02F016FC284638BD7C83FF1F10B50446013002F09BFA064802F098FA04F1110002F094FA034802F0BC
:400A400091FA002010BD00BFA44200009042000038B5134B988908B319461C89631C9BB2104AA2FB03525209642505FB12330B810138888101EB44018B7B13B1012B04D052
:400A800006E0002002F02EFC02E0012002F02AFC034B03EB4404E07B02F056FC38BD00BF8083FF1F1F85EB5130B5ABB01B4B9B89632B17D92AAD032305F8A83D184B186817
:400AC000CDF80100174C0FCCCDF81100CDF81510CDF81920CDF81D302846FFF7A3FF6FF0070019E00D4D6C89621C92B205EB4404A073E1730C49A1FB02014909642000FB48
:400B000011226A8101339BB2AB81012B03D1FFF79FFF002000E000202BB030BD8083FF1F00480000044800001F85EB512DE9F04180460E4617461D462A210020FFF7B4FFA4
:400B400000210120FFF7B0FF194C94F8D6104144C9B20120FFF7A8FF00210120FFF7A4FF94F8D6103944C9B20120FFF79DFF2B210020FFF799FF00210120FFF795FF94F8AF
:400B8000D7103144C9B20120FFF78EFF00210120FFF78AFF94F8D7102944C9B20120FFF783FF2C210020FFF77FFFBDE8F08100BF8083FF1F10B5044636210020FFF774FF3F
:400BC00004F003002A4B83F8D80003284ED8DFE800F00215283BC2210120FFF765FF244BA022A3F8DA208022DA8093F8DC2083F8D62093F8DD2083F8D72010BDA2210120F1
:400C0000FFF752FF1A4BA022DA808022A3F8DA2093F8DC2083F8D72093F8DD2083F8D62010BD08210120FFF73FFF114BA022A3F8DA208022DA8093F8DC2083F8D62093F846
:400C4000DD2083F8D72010BD62210120FFF72CFF074BA022DA808022A3F8DA2093F8DC2083F8D72093F8DD2083F8D62010BD00BF8083FF1F024BA3F8DE00A3F8E010704727
:400C80008083FF1F024BA3F8E200A3F8E41070478083FF1F014BB3F8E40070478083FF1F08B90120FFE7014B187170478083FF1F2DE9F0411F46BDF818501F4BB3F90630A5
:400CC000834236DD90461C4AB2F8DA20914230DA00EB0804013C9C4202DB1B1A0FFA83F87B18013B9A4201DC571A3FB2C0B2C9B2CB19013B00EB0802013ADBB2D2B2FFF789
:400D000015FF2E0AEDB2012002F0ECFA0FE031460220FFF7C9FE29460220FFF7C5FE013C24B200E04446002CF1DC013F3FB2002FF8DCBDE8F08100BF8083FF1F00B583B0B8
:400D4000064AB2F9DA30B2F90620009000210846FFF7AEFF03B05DF804FB00BF8083FF1FF8B5364B8022DA80A022A3F8DA20002483F8D840A3F8DE40A3F8E04001251D71B4
:400D80004FF6FF72A3F8E220A3F8E4405D711C6083F8DD4083F8DC4083F8D64083F8D7401C815C819C8102F00DFB284602F08EFA642002F0B9FB204602F088FA642002F092
:400DC000B3FB284602F082FA142002F0ADFB29462046FFF769FE322002F0A6FB11212046FFF762FE782002F09FFB0F22144D14E02C4614F8021B0020FFF756FE6A7825469A
:400E000006E06E1C29780120FFF74EFE22463546531EDCB2002AF4D13A46531EDFB2002AE6D10220FFF7C6FE0020FFF787FF02F037FB642002F0EEFAF8BD00BF8083FF1F7B
:400E4000A942000008B5FFF725FFFFF777FF08BD002821DB114BB3F9063098421CDA00291ADB0E4BB3F8DA30994215DA10B51446C0B2C9B24B1C421CDBB2D2B2FFF756FE2B
:400E8000012002F02FFA210A0220FFF70DFEE1B20220FFF709FE10BD704700BF8083FF1FF8B51E46164BB3F90630834226DD1546134BB3F8DA30994220DA0A44013A9342D5
:400EC00001DC5D1A2DB2C0B2C9B24B19013BDBB20246FFF72BFE370AF6B2012002F002FA08E039460220FFF7DFFD31460220FFF7DBFD25466A1E14B2002DF2D1F8BD00BF67
:400F00008083FF1F2DE9F04F8BB00290039115460493BDF850709DF854A07F4B1A68002A40F09080B3F906300146834240F3F180794BB3F8DA300398984280F2EA800AEBE3
:400F40004A0253000B44012B00F1E38000EBCA03012B00F1DE804FF00008894683460595049E4EE0059B03EB830343446B4A134493F8585000243EE015F0010F1BD0BAF1C0
:400F8000010F09D104EB0B0108EB0900324609B200B2FFF75DFF2BE01FFA8AF00FFA8AF204FB00B108FB00900096134609B200B2FFF77EFE1CE0BE421AD0BAF1010F09D16A
:400FC00004EB0B0108EB09003A4609B200B2FFF73FFF0DE01FFA8AF00FFA8AF204FB00B108FB00900097134609B200B2FFF760FE013464B26D08072CBEDD08F101084FFA07
:4010000088F8B8F1040FADDD049BBB4200F08180BAF1010F08D1029805303B460822039900B2FFF73DFF74E01FFA8AF303EB8300029A10440097DB005246039900B2FFF736
:4010400037FE66E0137AEB1ADBB2506800EBC301D2F800B030F8337091F80280CB78079391F90530089391F906200992BAF1010F04D91BB2059313B2069302E000230693A4
:40108000059300231C46994640E05E1CF6B213F0070F03D17B1C1BF807409FB214F0800F27D0BAF1010F0DD1099B039A99184944089B029A98182844049A09B200B2FFF7C5
:4010C000C7FE16E0059B58191FFA8AF3069A02EB09010FFA8AFE039A01FB0321029A00FB0320049B00937246734609B200B2FFF7DFFD6400E4B20135EDB2334600E00025C0
:401100004545C2D309F101095FFA89F9079A9145F5D30BB0BDE8F08F8083FF1FA842000070B582B04E4B1B68002B43D10A280BD14B4B0022A3F8DE201979B3F8E02002EB4D
:40114000C102A3F8E02088E00D2800F08680444B5B79ABB1424A117901EB41046300B2F8DE402344B2F90620934209DD3C4B0022A3F8DE20B3F8E02002EBC101A3F8E01033
:40118000374CB4F8E230B4F9E010B4F9DE5022790192B4F8E420009202462846FFF7B2FE237903EB43035A00B4F8DE301344A4F8DE3052E00A280CD1294A0021A2F8DE1068
:4011C000997A1079B2F8E03000FB0133A2F8E03043E00D2841D01A7A90423ED3597A88423BD8821A5C6804EBC204A278E1785AB351B394F905501A494979A9B118490E794E
:401200002A44B1F8DE5002FB0652B1F906108A420ADD134A0021A2F8DE109B7AB2F8E01006FB0316A2F8E0600D4AB2F8E230B2F9E010B2F9DE5016790196B2F8E42000920B
:4012400002462846FFF75EFE2179054B1879B3F8DE2000FB0122A3F8DE2002B070BD00BF8083FF1F10B5044602E00134FFF758FF20780028F9D110BDF8B506460F46154659
:4012800000240DE006EBC4039A88B5FBF2F302FB13531BB956F83430002098470134A4B2BC42EFD30020F8BDF8B505460E461746002409E005EBC4035868384202D055F8E0
:4012C000343098470134A4B2B442F3D30020F8BD70B594B02A4E0AAC35460FCD0FC40FCD0FC495E8030084E803000022ADF838204FF6FF73ADF83A30ADF84820ADF84A301F
:401300006C460AAD0FCD0FC40FCD0FC495E8030084E80300336B93F82020012A02D1586A01F090FB164E34466D460FCD0FC40FCD0FC495E8030084E803000023F3620223D7
:4013400086F82830336B93F82020012A02D1586A01F01EFD0A4B1B6B5D699B6873B13DB90CE0996855F8240001F004FA013400E00024034B1B6B1A699442F2D314B070BD3B
:40138000F880FF1F70B594B00AAC3A4D0FCD0FC40FCD0FC495E8030084E803009DF82C30012B0BD14FF6FF73ADF838300022ADF83A20ADF84820ADF84A3019E0022B0BD198
:4013C0000023ADF838304FF6FF72ADF83A20ADF84820ADF84A300BE053B90022ADF838204FF6FF73ADF83A30ADF84820ADF84A306C460AAD0FCD0FC40FCD0FC495E803008D
:4014000084E803001B4B1B6B93F82020012A02D1586A01F017FB174E34466D460FCD0FC40FCD0FC495E8030084E803000023F362022386F82830336B93F82020012A02D10A
:40144000586A01F0A5FC0B4B1B6B5D699B6873B13DB90CE0996855F8240001F08BF9013400E00024034B1B6B1A699442F2D314B070BD00BFF880FF1F70B5B4B034AC042385
:4014800004F8D03D474B07CBCDF80100CDF80510CDF809201A889B78ADF80D208DF80F30414B03CBCDF81100CDF815101B88ADF819302046FFF7B6FA3C4B1B6B93F8202057
:4014C000012A02D1586A01F0BDFA384E2AAC35460FCD0FC40FCD0FC495E8030084E80300336B93F82020012A02D1586A01F050FC00238DF8AC309DF8C4303A2B07D9002385
:401500008DF8C4309DF8B43001338DF8B4309DF8B430172B04D900238DF8B4308DF8C4306C462AAD0FCD0FC40FCD0FC495E8030084E803001D4B1B6B93F82020012A02D1F2
:40154000586A01F07FFA194E34466D460FCD0FC40FCD0FC495E8030084E803000023F362022386F82830336B93F82020012A02D1586A01F00DFC0D4B1B6B5D699B6873B1FD
:401580003DB90CE0996855F8240001F0F3F8013400E00024054B1B6B1A699442F2D334B070BD00BF5849000068490000F880FF1F70B5B4B034AD042305F8D03D3B4C0FCC19
:4015C000CDF80100CDF80510CDF80920CDF80D30374B03CBCDF81100CDF815101B88ADF819302846FFF71EFA324B1B6B93F82020012A02D1586A01F025FA2E4E2AAC3546D3
:401600000FCD0FC40FCD0FC495E8030084E80300336B93F82020012A02D1586A01F0B8FB9DF8C43001338DF8C4306C462AAD0FCD0FC40FCD0FC495E8030084E803001D4B1C
:401640001B6B93F82020012A02D1586A01F0FAF9184E34466D460FCD0FC40FCD0FC495E8030084E803000023F362022386F82830336B93F82020012A02D1586A01F088FB85
:401680000C4B1B6B5D699B6873B13DB90CE0996855F8240001F06EF8013400E00024054B1B6B1A699442F2D334B070BD7449000068490000F880FF1F70B5B4B034AC0423E3
:4016C00004F8D03D4D4B07CBCDF80100CDF80510CDF809201A889B78ADF80D208DF80F30474B1868CDF811009A889B79ADF815208DF817302046FFF795F9424B1B6B93F852
:401700002020012A02D1586A01F09CF93D4E2AAC35460FCD0FC40FCD0FC495E8030084E80300336B93F82020012A02D1586A01F02FFB9DF8AC30012B02D0022B0FD01CE03F
:401740009DF8B4300133DBB22F4AA2FB0312120902EB4202A3EBC2038DF8B4300DE09DF8C4300133DBB2294AA2FB03125209C2EB0212A3EB82038DF8C4306C462AAD0FCD93
:401780000FC40FCD0FC495E8030084E803001D4B1B6B93F82020012A02D1586A01F052F9184E34466D460FCD0FC40FCD0FC495E8030084E803000023F362022386F82830B0
:4017C000336B93F82020012A02D1586A01F0E0FA0C4B1B6B5D699B6873B13DB90CE0996855F8240000F0C6FF013400E00024054B1B6B1A699442F2D334B070BD8849000013
:4018000098490000F880FF1FABAAAAAA8988888870B594B0284E0AAC35460FCD0FC40FCD0FC495E8030084E8030002238DF82C306C460AAD0FCD0FC40FCD0FC495E80300BD
:4018400084E80300336B93F82020012A02D1586A01F0F8F8184E34466D460FCD0FC40FCD0FC495E8030084E803000023F362022386F82830336B93F82020012A02D1586A73
:4018800001F086FA0C4B1B6B5D699B6873B13DB90CE0996855F8240000F06CFF013400E00024054B1B6B1A699442F2D305210C98FEF7E6FF14B070BDF880FF1F70B594B07D
:4018C000284E0AAC35460FCD0FC40FCD0FC495E8030084E8030002238DF82C306C460AAD0FCD0FC40FCD0FC495E8030084E80300336B93F82020012A02D1586A01F0A2F884
:40190000184E34466D460FCD0FC40FCD0FC495E8030084E803000023F362022386F82830336B93F82020012A02D1586A01F030FA0C4B1B6B5D699B6873B13DB90CE0996863
:4019400055F8240000F016FF013400E00024054B1B6B1A699442F2D303210C98FEF790FF14B070BDF880FF1F70B594B0284E0AAC35460FCD0FC40FCD0FC495E8030084E897
:40198000030002238DF82C306C460AAD0FCD0FC40FCD0FC495E8030084E80300336B93F82020012A02D1586A01F04CF8184E34466D460FCD0FC40FCD0FC495E8030084E82D
:4019C00003000023F362022386F82830336B93F82020012A02D1586A01F0DAF90C4B1B6B5D699B6873B13DB90CE0996855F8240000F0C0FE013400E00024054B1B6B1A6926
:401A00009442F2D302210C98FEF73AFF14B070BDF880FF1F70B594B0284E0AAC35460FCD0FC40FCD0FC495E8030084E8030002238DF82C306C460AAD0FCD0FC40FCD0FC465
:401A400095E8030084E80300336B93F82020012A02D1586A00F0F6FF184E34466D460FCD0FC40FCD0FC495E8030084E803000023F362022386F82830336B93F82020012A82
:401A800002D1586A01F084F90C4B1B6B5D699B6873B13DB90CE0996855F8240000F06AFE013400E00024054B1B6B1A699442F2D301210C98FEF7E4FE14B070BDF880FF1F5C
:401AC00070B594B0284E0AAC35460FCD0FC40FCD0FC495E8030084E8030001238DF82C306C460AAD0FCD0FC40FCD0FC495E8030084E80300336B93F82020012A02D1586AA5
:401B000000F0A0FF184E34466D460FCD0FC40FCD0FC495E8030084E803000023F362022386F82830336B93F82020012A02D1586A01F02EF90C4B1B6B5D699B6873B13DB9C2
:401B40000CE0996855F8240000F014FE013400E00024054B1B6B1A699442F2D305210C98FEF78EFE14B070BDF880FF1F70B594B0284E0AAC35460FCD0FC40FCD0FC495E81B
:401B8000030084E8030001238DF82C306C460AAD0FCD0FC40FCD0FC495E8030084E80300336B93F82020012A02D1586A00F04AFF184E34466D460FCD0FC40FCD0FC495E828
:401BC000030084E803000023F362022386F82830336B93F82020012A02D1586A01F0D8F80C4B1B6B5D699B6873B13DB90CE0996855F8240000F0BEFD013400E00024054BC4
:401C00001B6B1A699442F2D303210C98FEF738FE14B070BDF880FF1F70B594B0284E0AAC35460FCD0FC40FCD0FC495E8030084E8030001238DF82C306C460AAD0FCD0FC40C
:401C40000FCD0FC495E8030084E80300336B93F82020012A02D1586A00F0F4FE184E34466D460FCD0FC40FCD0FC495E8030084E803000023F362022386F82830336B93F83F
:401C80002020012A02D1586A01F082F80C4B1B6B5D699B6873B13DB90CE0996855F8240000F068FD013400E00024054B1B6B1A699442F2D302210C98FEF7E2FD14B070BD8D
:401CC000F880FF1F70B594B0284E0AAC35460FCD0FC40FCD0FC495E8030084E8030001238DF82C306C460AAD0FCD0FC40FCD0FC495E8030084E80300336B93F82020012AA2
:401D000002D1586A00F09EFE184E34466D460FCD0FC40FCD0FC495E8030084E803000023F362022386F82830336B93F82020012A02D1586A01F02CF80C4B1B6B5D699B684B
:401D400073B13DB90CE0996855F8240000F012FD013400E00024054B1B6B1A699442F2D301210C98FEF78CFD14B070BDF880FF1F2DE9F043A1B00446067B057FB0F81090C3
:401D8000B0F81280877B90F82510007DFEF772FF49464046FEF776FF3846FEF781FF32461C49684601F000FE6846FFF75BFA00214FF6FF70FEF766FF174B1B7833B91748F3
:401DC000FFF750FA0122144B1A7005E01448FFF749FA0022104B1A70B4F82080678CA67F94F8251094F82400FEF744FF41463846FEF748FF3046FEF753FF2A46054968469F
:401E000001F0D2FD6846FFF72DFA002021B0BDE8F08300BFA04900006684FF1FA8490000AC4900000C4B5B68034413F1011F01D8094A5360084B9B6B034413F1011F01D877
:401E4000054A9363044BDB6E184410F1011F01D8014BD866704700BFEC80FF1FFEE700BFF0B40022174611E050F82760F3B226F0FF0608E001EB420511F812406D78A55509
:401E80000132013BDBB2002BF4D101372A2FEBD9F0BC704708B50A46002101F07CFD08BD38B500242D4B1C80582202331A70022202331A8018232A490B700E2002310880BE
:401EC00002310B70192502310D8002310B7041F2BF200231088002310B70224B1A7008224FF040231A70032103F5007319701E4B1B78DBB21D490B701D4B1A8041F2512296
:401F0000023B1A800CE01B4B1B7803F0010343EA440404F003044FF4F07001F0E9FB013D0DB1032CEFD115B90320FFF797FF124B4FF480721A8007221A7000220F490A70CB
:401F40004820023108701A700222033B1A700C4A137843F01F03137038BD00BF80400040864000400043004008010049A14600402242004025420040044000400640004014
:401F8000A2430040F8B5164B1B78DBB2154E3478E4B2154F3D78EDB203F00701134A11701B090132137044F00303337045F003033B7003220E4B1A7040230E4A1370023281
:401FC000137030220C4B1A70202203331A700A2001F0C0FA3D7034704422084B1A70F8BDCF010049F8460040F94600406E5800400D51004001590040205B004076580040EE
:4020000008B501F0BDFC08BD38B572B600240CE0394D630019194A0011462A44084691882858FFF737FF0134E4B2072CF0D900240BE03149A3001819420088180622416B38
:40204000006BFFF7DDFF0134E4B2002CF1D02B494FF09040FFF704FF04212948FFF71AFF042228492848FFF7CBFF284A137843F0020313701032137843F002031370244CD3
:40208000237843F040032370A2F58632513A137843F01003137008221E491F48FFF7B0FF0A221E491E48FFF7ABFF08221D491E48FFF7A6FF08221D491D48FFF7A1FF0822D2
:4020C0001C491D48FFF79CFF1C4A137843F0080313701B4D61232B70FFF7E2FE81232B700122184B1A70FFF74DFF0E2221461648FFF786FF38BD00BF544A0000AC0000482F
:4021000000760040540E00480876004003500140A0430040280E004802510040300E0048C05100403C0E004812510040440E0048225100404C0E0048325100402243004056
:402140000048004004000840B043004008B501F0EBFB03680C2B00D1FEE7FEE708B5094B1A681044084BC31A802B02DC054B186005E001F0D9FB0C2303604FF0FF3210461D
:4021800008BD00BF6081FF1FD09AFF1F08B5104E104D16E029686B68AC68002204E051F8040B43F8040B0432A242F8D1E868002203E0002143F8041B04328242F9D11035CA
:4021C000013E002EE6D101F0B5FBFDF7ADFFFEE701000000804D000008B5114A114B1A60114A136843F40073136000230AE0032B03D80E4A52F8231000E00D490D4A42F834
:40220000231001332F2BF2D90B4B1A780B4B1A70084A0B4B1A60FFF7F7FE01F06BF908BD0004FA050CED00E014ED00E0000000004D2100000080FF1FBC760040C080FF1F8A
:4022400008ED00E038B5EFF3108572B605284ED82D4B53F82030002B4BD02B4A013B42F820302A4B53F82030032B07D10222274B43F820200022264B43F8202000F09CFC59
:40228000244B1B68002B36D1234B1C6800F072FCB0F1FF3F31D0214B53F82020204B1B689A422CD9B4F1FF3F03D00221174A42F824101C4A52F820201343194A136000221E
:4022C000124B43F8202000F011FC174B53F820304BB10024144B43F8204040F0004001F093F920460CE001F08FF9002008E0032006E0042004E0002002E0002000E00020FF
:4023000085F3108838BD00BFD881FF1F8C82FF1F9C84FF1FE084FF1F7082FF1F4C4C0000BC84FF1F2C4C00006C84FF1FF8B5EFF3108472B6012825D800EB4005AB00184D39
:40234000EB5803EB4306B500164E75598D421BD34AB103EB43039E00124B1E44B3689A4214D3954214D3A9B103010F4DEB589BB90301EE180127EF507260013900F086F8DB
:4023800000200AE0032008E0082006E0082004E0082002E0082000E0072084F31088F8BDC44B0000EC4B00001885FF1F18B108B5C368984708BD704708B508B1406800E0E6
:4023C0000020052816D80C4B53F8203093B10A4A013B42F82030094B53F82030032B07D10222064B43F820200022054B43F8202000F0E2FB08BD00BFD881FF1F8C82FF1F8C
:402400009C84FF1F18B1034640689B6801E00023184605281DD80F4A52F82020CAB10E4A52F82010032914D010B50C4C54F820201A4344F820200A4A52F82020134207D051
:40244000012905D10222044B43F8202000F0B4FB10BD7047FC4B00008C82FF1F9C84FF1F8484FF1F80B108B50378012B06D013B1032B06D008BDFFF79FFF08BDFFF7C2FF6C
:4024800008BDFFF793FF08BD704700BF30B400EB40029300214AD258214B03EBC2035C68B4F1FF3F04D11E4B03EBC20250602DE01C4B03EB04139B6899420AD2184D05EB6D
:4024C000C2025060174A02EB04125B1A93601DE01C46144B03EB04139A68891ADB68B3F1FF3F05D00F4A02EB031292689142EFD2B3F1FF3F05D00B4A02EB031295686D1ABF
:402500009560084A02EB0414E0601C46054B03EB00108160C46030BC704700BFC44B00006C81FF1F1885FF1F38B5394A02EBC0035C6852F83030013342F8303000EB40019B
:402540008A0034498A58934203D90022304B43F83020B4F1FF3F59D02F4B03EB04139B68002B4ED1214600E019462B4B03EB0113DB68B3F1FF3F05D0274A02EB031292683C
:40258000002AF1D0244A02EB01114FF0FF32CA601F4A02EBC0004360B3F1FF3F07D01E4A02EB03139A68013A9A6000E02C4604EB44029300194A13441B7A7BB904EB440243
:4025C0009300164A13445A68154B53F8223003EB83039A0013481044FFF744FF0E4B03EB0413DD68596821B101392046FFF74EFF03E024010022084B1A51B5F1FF3FD5D151
:4026000038BD054A02EB0414013BA36038BD00BF6C81FF1FEC4B00001885FF1FC44B0000E44B00009C4B000038B5EFF3108572B6002838D1FFF778FF204B1B68002B34D1F4
:402640001F4B1C6800F096FAB0F1FF3F2FD01D4B53F820201C4B1B689A422AD9B4F1FF3F03D00221194A42F82410194A52F820201343154A13600022144B43F8202000F0A7
:4026800035FA144B53F820304BB10024114B43F8204040F0004000F0B7FF20460AE000F0B3FF002006E0032004E0002002E0002000E0002085F3108838BD00BFE084FF1F5D
:4026C0007082FF1F4C4C0000BC84FF1F8C82FF1F2C4C00006C84FF1FEFF3108372B6114A1168114A126882B9B1F1FF3F0FD00F4A52F821206AB110B40D4C54F8212022EA2D
:40270000000044F82100002007E0022002E0022000E0012083F31088704783F3108810BC704700BF7082FF1FE084FF1FFC4B00009C84FF1F05280FD80B4B53F820306BB1C1
:402740000A4B53F82030032B0AD059B1084B53F820300B60002070470320704701207047072070470E207047FC4B00008C82FF1F9C84FF1F38B5EFF3108472B6052853D81E
:40278000324B53F82030002B50D0314B53F82030032B4DD02F4D55F820200A4345F820202D4A52F82020114244D0012B44D10222274B43F8202000F0FFF9284B1B68002BBE
:4027C0003CD1274B1D6800F0D5F9B0F1FF3F37D0244B53F82020244B1B689A4232D9B5F1FF3F03D002211A4A42F825101F4A52F8202013431C4A13600022154B43F8202092
:4028000000F074F91A4B53F820304BB10025184B43F8205040F0004000F0F6FE284612E000F0F2FE00200EE003200CE001200AE0072008E0002006E0002004E0002002E035
:40284000002000E0002084F3108838BDFC4B00008C82FF1F9C84FF1F8484FF1FE084FF1F7082FF1F4C4C0000BC84FF1F2C4C00006C84FF1F38B5EFF3108472B63A4B1D68BA
:402880003A4B1B68002B63D1B5F1FF3F62D0384B53F82530B3F1FF3F5ED1364B53F82530002B5BD0344B53F82530034258D1334B43F825000122324B43F82520314B53F89E
:4028C000250031490B6823EA00030B602F4B43F825202F4B53F82520234B1A6000F04AF9B0F1FF3F06D02B4B53F82020264B1B689A420DD81C4B1868B0F1FF3F03D0002206
:402900001F4B43F8202040F0004000F07DFE1AE000211B4A42F820101A4A52F820201343194A136000F0E2F8184B53F8203043B10022164B43F8202040F0004000F064FE57
:4029400001E000F061FE00200C4B43F8250008E0022006E0022004E0062002E0012000E0002084F3108838BD7082FF1FE084FF1F7881FF1FFC4B00009C84FF1F8484FF1FD9
:402980008C82FF1F2C4C0000BC84FF1F6C84FF1F7482FF1F4C4C000008B500F0A7F8084B53F8203043B10022054B43F8202040F00040044B186008BD024B186008BD00BFFB
:4029C0006C84FF1FE484FF1F10B500F0D3F8124B1B68B0F1FF3F1AD0104A52F82010104A1268914213D9B3F1FF3F03D002240D4941F8234000210B4B43F820100A4B53F864
:402A000020301A43064B1A60FFF7C6FF10BD43F00043064A136010BD7082FF1F4C4C0000BC84FF1F8C82FF1F2C4C0000E484FF1F034B1B6813B10022014B1A60704700BF6D
:402A4000D484FF1F204B1A68204B1968EFF3108372B648BB30B41E4C54F8204044BB51B9B2F1FF3F26D01B4C54F822501A4C54F82040A54220D809BB184951F82250184C33
:402A800044F8205041F822000121114A42F8201014490C68144A42F820400F4A52F8202022430A6000200AE0032083F310887047012004E0012002E0012000E0012083F31B
:402AC000108830BC704700BF7082FF1FE084FF1F6884FF1F4C4C0000F84B00007881FF1F7481FF1FBC84FF1F3885FF1FF0B4184B19880B0A174AD356B3F1FF3F01D153565E
:402B000001E008335BB2144D55F82320134850F82200134E56F8224045F82340114D2F6846F822702A60B4F1FF3F09D10E4A42F82340012202FA03F321EA0301044B1980F8
:402B40000A4B19680A4A42F820101860F0BC7047B884FF1F904A00003082FF1FE884FF1FA881FF1FB484FF1FF081FF1F7082FF1F7482FF1F0C4B1A88130A0C49CB56B3F1D8
:402B8000FF3F01D18B5601E008335BB2B3F1FF3F06D0074A52F82320064B53F8220070474FF0FF30704700BFB884FF1F904A00003082FF1FE884FF1F30B4144B53F82020B0
:402BC000134C2368134951F823502560124C44F823004FF0FF3441F82340104951F82210A1420AD10E4951F820400E480188214301800D4941F8223002E0064840F8213093
:402C0000064941F8223030BC704700BFC081FF1FB484FF1FA881FF1FE884FF1FF081FF1F4C4C0000B884FF1F3082FF1F10B150F8210070474FF0FF30704700BF0122014B4D
:402C40001A60FEE7DC84FF1F70B50546124B53F8306000241CE0104B03EBC50321465868FFF7E4FF0D4A52F82030013B42F820300B4B53F82030032B07D10222084B43F83E
:402C800020200022074B43F82020FFF795FF0134B442E0D370BD00BF904B0000D881FF1F8C82FF1F9C84FF1F18B908B5FFF7CCFF08BD7047194B1A4ADA621A4A9A631A4A41
:402CC000DA63EFF3108272B6184B1B6813BB10B5044600F0EFF8164B1C600122134B1A602046FFF7E1FFFFF745FFB0F1FF3F0ED0104B53F82030104A11680B4313600022AA
:402D00000E4B43F82020FFF7F1FE00F07DFC62B6FFF794FF82F31088072070470080FF1FC93500008D35000091000000DC84FF1F3C85FF1F2C4C0000BC84FF1F8C82FF1F97
:402D400008B5EFF3108272B60D4B19680D4B1B6863B90D4B53F82130B3F1FF3F08D14FF0FF300A4B43F82100002002E0022000E0062010B9084600F0A0FC82F3108808BDBD
:402D80007082FF1FE084FF1F7881FF1F9081FF1F70B53C4B1A683C4B1B68EFF3108572B600285BD1394951F82010002958D0384951F82210884255D153B9B2F1FF3F53D0C8
:402DC000344C54F82260344C54F82040A6424DD8002B4DD1314C54F821402D4941F8224000212A4A42F820102D4A52F820102D4A1160002B3ED1234B1C68FFF7BBFEB0F174
:402E0000FF3F39D0234B53F82020264B1B689A4234D9B4F1FF3F03D00221234A42F82410224A52F8202013431E4A136000221E4B43F82020FFF75AFE1D4B53F820304BB147
:402E400000241B4B43F8204040F0004000F0DCFB204614E000F0D8FB002010E003200EE005200CE005200AE0012008E0012006E0012004E0002002E0002000E0002085F3E9
:402E8000108870BD7082FF1FE084FF1F6884FF1F7881FF1F4C4C0000F84B00007481FF1F3885FF1FBC84FF1F8C82FF1F2C4C00006C84FF1F10B5EFF3108472B600F054FB1F
:402EC000034A136843F07F43136084F3108810BD20ED00E07222074B1A702022023B1A700622613B1A70472210331A70002250331A7070478865004010B500F001FC0446CD
:402F00000A4A137843F020031370023A137843F010031370013A137843F01003137000F0CDFA204600F0F0FB10BD00BF9865004008B5054B1B7823B9FFF7CCFF0122024B4C
:402F40001A70FFF7D9FF08BDC484FF1F034B1B7813F0040FFAD1024B18707047656500404564004038B5074B1B782BB938BDFFF7EDFF0134A4B201E005460024285D002878
:402F8000F5D138BDC484FF1F024A137843F08003137070477A640040014B1880704700BF14680040014B1880704700BF94680040014B1880704700BF54680040014B188025
:402FC000704700BF74680040014B1870704700BF8A640040014B1878704700BF6A640040014B188880B27047B468004008B501E0FFF7F6FFFFF7EEFF10F0100FF8D108BD1D
:4030000010B5154A137803F0C00343F009031370124C237843F0010323702132137843F001031370FF20FFF7B7FFFF20FFF7BAFF7F20FFF7BDFF3F20FFF7C0FF0020FFF7FA
:40304000C3FF00F05DFB237843F01003237000F05BFBFFF7CBFF10BD7A6400409A64004008B5054B1B7823B9FFF7CAFF0122024B1A70FFF789FF08BDC684FF1F024A1378EC
:4030800043F080031370704778640040014B1880704700BF18680040014B1880704700BF98680040014B1880704700BF58680040014B1880704700BF78680040014B1870A8
:4030C000704700BF8D640040014B1878704700BF6D640040014B188880B27047B868004008B501E0FFF7F6FFFFF7EEFF10F0100FF8D108BD10B5154A137803F0C00343F0E0
:40310000090313702432137843F001031370104C237843F001032370FF20FFF7B7FFFF20FFF7BAFF7F20FFF7BDFF3F20FFF7C0FF0020FFF7C3FF00F0E3FA237843F0100320
:40314000237000F0E1FAFFF7CBFF10BD786400409D64004008B5054B1B7823B9FFF7CAFF0122024B1A70FFF789FF08BDC784FF1F024A137843F08003137070477F6400403C
:40318000014B1880704700BF1C680040014B1880704700BF9C680040014B1880704700BF5C680040014B1880704700BF7C680040014B1870704700BF8F640040014B18781E
:4031C000704700BF6F640040014B188880B27047BC68004008B501E0FFF7F6FFFFF7EEFF10F0100FF8D108BD10B5154A137803F0C00343F0090313701F32137843F00103BA
:403200001370104C237843F001032370FF20FFF7B7FFFF20FFF7BAFF7F20FFF7BDFF3F20FFF7C0FF0020FFF7C3FF00F069FA237843F01003237000F067FAFFF7CBFF10BDCF
:403240007F6400409F64004008B5054B1B7823B9FFF7CAFF0122024B1A70FFF789FF08BDC884FF1F044A137803F0FE0300F0010018431070704700BF20510040044A13786D
:4032800003F07F03C001C0B218431070704700BF00510040044A137803F0BF03800100F0400018431070704700510040024B1878C0F34010704700BF01510040024B18785D
:4032C000C0F38000704700BF31510040044A137803F0EF03000100F0100018431070704730510040044A137803F0F703C00000F00800184310707047C051004008B500F043
:40330000FFF90A4A137843F020031370A2F58272137843F0100313700432137843F01003137000F0F1F900F0D7F808BD97650040014B1878704700BF63640040014B1878A5
:40334000704700BF67640040034B1B7813F0040FFAD0024B18707047636400404764004008B501E00A4B1B780A4B1B7813F0200FF8D100F0C5F9084B1A7842F001021A70D2
:403380001A7802F0FE021A7000F0BEF908BD00BF57640040676400409764004008B50F22064B1A70FFF7DCFFFFF7C2FFFFF7C6FF0023034A13700432137008BD87650040EA
:4033C0008364004008B5054B1B7823B9FFF7E6FF0122024B1A70FFF791FF08BDC984FF1F084A137843F0010313701032137843F00103137002F64D32137843F001031370C5
:40340000704700BFA3430040014B1880704700BF044F0040014B1880704700BF064F0040014B1870704700BF034F004008B5194A137843F0020313700232137803F08F038E
:4034400043F010031370144B1A7802F0CF021A701A7842F030021A701A7802F0F0021A701A7842F00F021A706420FFF7CDFF0020FFF7D0FF0020FFF7D3FF084A137843F043
:403480000103137002F65E32137843F00103137008BD00BF004F00400B4F0040A343004008B5054B1B7823B9FFF7C0FF0122024B1A70FFF795FF08BDCA84FF1F054A137825
:4034C00043F0080313701032137843F008031370704700BFA2430040054A137843F0010313701032137843F001031370704700BFA24300400B4A7F2313708021517007E069
:40350000DA0002F1804202F5F042013BDBB21370002BF5D1DB0003F1804303F5F04300221A707047D082FF1F10B5044605E0084B186800F0DDF8A4F50044B4F5004FF6D8D7
:40354000034B586800FB04F000F0D2F810BD00BFD882FF1F08B5034B1B7A00FB03F000F0C7F808BDD882FF1F18484FF47F0102680A43026016486FF07F4102680A40026047
:40358000704714484FF080510160704772B611484FF000610160FFF717FA0F48006800F003F958B10C4800684FF080730B4A0C490FB40FB46FF00600004700BF6FF00600A5
:4035C00062B6004762B600DF08B0704720ED00E01CED00E004ED00E0E484FF1F09360000C5350000EFF30880054908600548006880F3088870470248006880F308887047A5
:40360000E882FF1FC482FF1F411C8900154A11440968154A136899421AD0F0B444464D4656465F46F0B400B5104C9B002344EFF308851D60116089002144096881F308887B
:4036400002BC8E46F0BCA046A946B246BB46F0BC002806DB00B500F09BF802BC8E46FFF7D3BF7047944C0000C084FF1FC882FF1FF0B444464D4656465F46F0B400B5EFF399
:40368000038308B48000174901440968164A0244EFF30883136088471448804704BC4FF08070024382F3038801BC8646F0BCA046A946B246BB46F0BC704780000A49014408
:4036C0000A6882F3088804BC4FF08070024382F3038808BC9E46F0BCA046A946B246BB46F0BC7047644C00000085FF1F113700000230800803D000BF01380046FCD17047B0
:40370000EFF3108072B6704780F31088704700BF10B572B6034B1C68204600F00DF82046FFF7CBFF7082FF1F08B5024B1868FFF79FFF08BD7082FF1F10B4104B53F82030BA
:403740004FF0FF310BE00E4A52F823200B4941F8202000240B4941F8234019461346B3F1FF3FF0D1B1F1FF3F04D0074B53F82120064B1A60084610BC704700BF7881FF1FCA
:403780007481FF1F6884FF1F3885FF1FBC84FF1F08B562B6FFF7C8FF72B600F041F8014B186808BDE484FF1F00280BDA20F000400130054B53F82000044B1B68181A18BF95
:4037C0000120704701207047944C0000C084FF1F054B53F82020054B53F820309A4201D10120704700207047D881FF1F144C000008B5FFF77BF9084B53F8203043B10022B2
:40380000054B43F8202040F00040044B186008BD024B186008BD00BF6C84FF1FE484FF1F38B5364B1C680022354B1A60354A52F82430013342F82430334B53F82450204654
:40384000FFF7C6FF012801D0A54204D103222F4B43F8242003E002222C4B43F824202C4B53F824102B4A136823EA010313602A4B53F82440214B1C60B5F1FF3F0FD0234B15
:4038800053F82530032B07D10222204B43F825200022224B43F825202846FFF78DF9FFF769F9B0F1FF3F0BD1B4F1FF3F03D00022164B43F8242044F00044194B1C6038BD42
:4038C000184B53F82020134B1B689A4208D800220E4B43F8242044F00044114B1C6038BD00210A4A42F82010094A52F820201343084A1360FFF77CFF38BD00BF7082FF1FF2
:40390000D484FF1FD881FF1F9081FF1F8C82FF1F2C4C0000BC84FF1F7482FF1F9C84FF1FE484FF1F4C4C0000014B1868704700BF4C83FF1F0E4B70B51E460E4C0025E41A6B
:40394000A410A54204D056F8253098470135F8E701F004FA084B094C1E46E41AA4100025A54204D056F8253098470135F8E770BD684D0000684D0000684D0000704D000014
:4039800010B5431E0A44914204D011F8014B03F8014FF8E710BD03460244934202D003F8011BFAE7704700000EB400B54FF402719CB0ADF814106FF00041049107914FF667
:4039C000FF711DAB02900690084853F8042BADF81610006802A9019300F064F8029B00221A701CB05DF804EB03B070474C83FF1F2DE9F0478E6882469E420C46914698463D
:403A00003ED88A8912F4906F3AD02568096902236F1A656905EB450595FBF3F57B1C43449D4238BF1D4653050FD5294600F040FB064698B13A462169FFF7A2FFA38923F47B
:403A4000906343F08003A38113E02A4600F08EFB064670B92169504600F0DEFA0C23CAF80030A3894FF0FF3043F04003A381BDE8F08726613E44266046466561ED1BA560E1
:403A8000464528BF464649463246206800F0A8FAA36800209B1BA36023681E442660BDE8F08700002DE9F04F9DB003938B8980461C060D4616460DD50B695BB9402100F0D6
:403AC000F7FA2860286118B90C23C8F80030CDE040236B610023099320238DF82930DFF89CB130238DF82A3037463C4614F8013B1BB9B7EB060910D003E0252BF9D02746AD
:403B0000F3E74B46324629464046FFF771FF013000F0A780099B4B4409933B78002B00F0A08000234FF0FF3204930793059206938DF853301A930126052221784E4800F02C
:403B400041FA671C049B38B14B4A3C46801A06FA00F018430490EFE7D90644BF20228DF853201A0744BF2B228DF8532022782A2A03D0079A00210A200BE0039A111D126837
:403B80000391002A10DA524243F00200079204900BE027463B780134303B092B03D800FB02320121F5E701B107923B782E2B1ED17B782A2B0AD1039B02371A1D1B680392F1
:403BC000002BB8BF4FF0FF33059310E0002319460593781C0A2407463A780130303A092A03D804FB01210123F5E703B1059103223978224800F0E6F940B14023CBEB000022
:403C000003FA00F0049B013718430490397806221B487E1C8DF8281000F0D4F988B1194B33B9039B073323F007030833039314E003AB00932A46144B04A94046AFF30080D9
:403C400007E003AB00932A460F4B04A9404600F093F8B0F1FF3F824603D0099B5344099342E7AB895B0601D4099801E04FF0FF301DB0BDE8F08F00BF264D00002C4D000034
:403C8000304D000000000000F13900002DE9F04791461F460A698B6806469342B8BF1346C9F8003091F843200C46DDF8208012B10133C9F800302368990642BFD9F80030C5
:403CC0000233C9F80030256815F0060510D104F1190A07E00123524639463046C04701301AD00135E368D9F800209B1A9D42F1DB94F843302268003318BF012392060FD549
:403D0000E118302081F843005A1C94F845102244023382F8431003E04FF0FF30BDE8F08704F1430239463046C0470130F4D02268D9F80050E36802F00602042A08BF5D1BCA
:403D40002269A3680CBF25EAE57500259342C4BF9B1AED184FF000091A344D4509D00123224639463046C0470130D5D009F10109F3E70020BDE8F0872DE9F04317460A7E9B
:403D800085B06E2A984606460C460C9B01F1430E00F0AE8011D8632A22D009D8002A00F0BB80582A40F0CA8081F84520834955E0642A1ED0692A1CD0C0E0732A00F0B080E1
:403DC00009D86F2A2ED0702A40F0B8800A6842F020020A603EE0752A24D0782A3AD0ADE01A6801F14205111D1960136884F84230A8E021681A6811F0800F02D0111D1960C8
:403E000008E011F0400F02F10401196002D0B2F9003000E01368002B3CDA2D225B4284F8432037E021681A6811F0800F02D0111D196007E011F0400F02F10401196001D021
:403E4000138800E01368227E5C496F2A14BF0A2208221BE078225A4984F845202268186812F0800F00F104051D6003D1550601D5038800E00368D00744BF42F0200222608F
:403E80001BB9226822F0200222601022002084F8430001E049490A226568002DA56008DB206820F0040020602BB9002D7DD175460CE0002B79D07546B3FBF2F002FB10333B
:403EC000CB5C05F8013D03460028F5D1082A0BD12368DA0708D5236962689A42DEBF302305F8013C05F1FF35C5EB0E0323612EE008681A6810F0800F496903D0101D18604E
:403F0000136808E010F0400F02F104001860136801D0198000E0196000232361754616E01A68111D1960156800216268284600F049F808B1401B6060636804E004F14205DB
:403F400084F8422001232361002384F84330CDF800803B4603AA21463046FFF797FE013002D14FF0FF3026E023692A4639463046C0470130F5D023689B0710D5002504F13C
:403F8000190907E001234A4639463046C0470130E7D00135E368039A9B1A9D42F2DBE068039B9842B8BF184605E00B7804F1420584F842308AE705B0BDE8F083374D0000F8
:403FC000484D000010B5C9B202449042034605D01C7801308C42F8D1184610BD002010BD884210B501EB020301D8421E0BE09842FBD28118D21AD34204D013F8014D01F837
:40400000014DF8E710BD994204D011F8014B02F8014FF8E710BD000038B50546002944D051F8043C0C1F002BB8BFE41800F0D4F81E4A1368114613B96360146030E0A342D7
:404040000DD92268A018834201BF18685B681218226063600C6023E0A24203D813465A68002AF9D118681918A1420BD12168014458188242196013D11068526801441960E5
:404080005A600DE002D90C232B6009E021686018824201BF106852680918216062605C602846BDE8384000F098B838BDD084FF1F70B5CD1C25F0030508350C2D38BF0C2509
:4040C000002D064601DBA94202D90C23336046E000F082F8234B1C681A462146A1B10B685B1B0ED40B2B03D90B60CC18CD501EE08C420BBF63684B681360636018BF0C468C
:4041000015E00C464968E9E7174C23681BB9304600F052F820602946304600F04DF8431C18D0C41C24F00304A0420DD12560304600F053F804F10B00231D20F00700C31A3F
:404140000ED05A42E25070BD211A304600F034F80130EBD10C233360304600F03EF8002070BD00BFD084FF1FCC84FF1FF8B5074615460E4621B91146BDE8F840FFF798BF5E
:404180001AB9FFF749FF2846F8BD00F027F885420ED929463846FFF78BFF044650B131462A46FFF7EDFB31463846FFF735FF01E03046F8BD2046F8BD38B5064C002305469E
:4041C00008462360FDF7CAFF431C02D1236803B12B6038BDC89AFF1F7047704751F8040C0028BEBF091851F8043CC0180438704700000000000000000000000000000000DF
:40420000000004000000FFFF0A3C000000000000000004000000FFFF503C0000202020456C656374726F6E696320436C6F636B2020200000446562756700000031204D69E6
:404240006E20456C61707365640000004B6579204C656674000000002564000050726F636573736564206576656E74006D0500000100000001000000AD060000FA0000008A
:4042800001000000A502000032000000010000000A00000055415254207374617274656400000000203A20000FB103053C3CB203053C3CB306053C3C053C3CB40103C003AC
:4042C000280804C101C0C2020D00C3028D2AC4028DEEC5011A3601C0E0100422070A2E30252A28262E3A00010313E10F16060D2D26232727252D3B000104133A0105290017
:4043000000000000003E5B4F5B3E3E6B4F6B3E1C3E7C3E1C183C7E3C181C577D571C1C5E7F5E1C00183C1800FFE7C3E7FF0018241800FFE7DBE7FF30483A060E2629792982
:4043400026407F050507407F05253F5A3CE73C5A7F3E1C1C08081C1C3E7F14227F22145F5F005F5F06097F017F006689956A606060606094A2FFA29408047E040810207E20
:40438000201008082A1C08081C2A08081E101010100C1E0C1E0C30383E3830060E3E0E06000000000000005F00000007000700147F147F14242A7F2A1223130864623649AC
:4043C0005620500008070300001C2241000041221C002A1C7F1C2A08083E080800807030000808080808000060600020100804023E5149453E00427F400072494949462128
:4044000041494D331814127F1027454545393C4A49493141211109073649494936464949291E000014000000403400000008142241141414141400412214080201590906EF
:404440003E415D594E7C1211127C7F494949363E414141227F4141413E7F494949417F090909013E414151737F0808087F00417F41002040413F017F081422417F4040406A
:40448000407F021C027F7F0408107F3E4141413E7F090909063E4151215E7F09192946264949493203017F01033F4040403F1F2040201F3F4038403F6314081463030478E5
:4044C00004036159494D43007F4141410204081020004141417F04020102044040404040000307080020545478407F284444383844444428384444287F3854545418000833
:404500007E090218A4A49C787F0804047800447D40002040403D007F1028440000417F40007C047804787C080404783844444438FC1824241818242418FC7C080404084826
:404540005454542404043F44243C4040207C1C2040201C3C4030403C44281028444C9090907C4464544C4400083641000000770000004136080002010204023C2623263CE1
:404580001EA1A161123A4040207A385454555921555579412254547842215554784020545579400C1E5272123955555559395454545939555454580000457C410002457DC6
:4045C000420001457C407D1211127DF0282528F07C545545002054547C547C0A097F4932494949323A4444443A324A4848303A4141217A3A42402078009DA0A07D3D424219
:40460000423D3D4040403D3C24FF2424487E4943662B2FFC2F2BFF0929F620C0887E090320545479410000447D413048484A32384040227A007A0A0A727D0D19317D2629E5
:40464000292F28262929292630484D4020380808080808080808382F10C8ACBA2F102834FA00007B000008142A142222142A14085500550055AA55AA55AAFF55FF55FF005B
:404680000000FF00101010FF00141414FF001010FF00FF1010F010F0141414FC001414F700FF0000FF00FF1414F404FC141417101F10101F101F1414141F00101010F0009C
:4046C0000000001F101010101F10101010F010000000FF101010101010101010FF10000000FF140000FF00FF00001F10170000FC04F414141710171414F404F40000FF009A
:40470000F714141414141414F700F7141414171410101F101F141414F4141010F010F000001F101F0000001F14000000FC140000F010F01010FF10FF141414FF14101010B1
:404740001F00000000F010FFFFFFFFFFF0F0F0F0F0FFFFFF0000000000FFFF0F0F0F0F0F3844443844FC4A4A4A347E02020606027E027E0263554941633844443C04407EEC
:40478000201E2006027E020299A5E7A5991C2A492A1C4C7201724C304A4D4D303048784830BC625A463D3E494949007E0101017E2A2A2A2A2A44445F444440514A444040BD
:4047C000444A51400000FF0103E080FF000008086B6B083612362436060F090F06000018180000001010003040FF0101001F01011E00191D1712003C3C3C3C0000000000F0
:4048000054465400427566666572206F766572666C6F770003000000000000000000000004000000B916000000000000030000006848000003000000040000004448000080
:40484000030000000100030000000000000000000200030000000000000000000500040000000000000000000100030000000000851300000200030000000000B9160000B3
:4048800003000400000000000000000000000000791400000000000000000000D112000000000000010000008513000000000000020000008513000000000000000000004E
:4048C000404900000200000001000000104900000400000002000000E0480000040000000100000000000000151A00000200020000000000691900000300020000000000E6
:40490000BD1800000500020000000000111800000100020000000000C51C00000200010000000000191C000003000100000000006D1B00000500010000000000C11A0000E9
:404940000100010000000000C51C00000400000000000000B115000055706461746520446973706C61790000436F6E7461696E6572000000496E6372656D656E7420312078
:404980006D696E20000000004175746F20696E6372656D656E740000576964676574000025303264000000003A000000200000000000000000000000000000000000040068
:4049C0000000FFFF0A3C000000000000000004000000FFFF503C000000000000711D0000000000000000000000000000000000000000000000000000010000000000000056
:404A0000000000000000000000000000000000000000000000000000000000000000000001000000000000000000000000000000010000000000000001000000504A0000D9
:404A40000000000000000000000000000000000003000000004F00400C00405100403000F0510040100000000140001000140140000800400140000A004C014000020050EE
:404A80000140200060520040200E004806000000FF000101020202020303030303030303040404040404040404040404040404040505050505050505050505050505050576
:404AC0000505050505050505050505050505050506060606060606060606060606060606060606060606060606060606060606060606060606060606060606060606060646
:404B000006060606060606060606060606060606070707070707070707070707070707070707070707070707070707070707070707070707070707070707070707070707C5
:404B40000707070707070707070707070707070707070707070707070707070707070707070707070707070707070707070707070707070707070707070707070707070775
:404B80000707070707070707070707070707070701000000984B00000100000003000000000000000000000089020000FFFFFFFF0000000005000000000000000000000011
:404BC000FFFFFFFF0000000000000000000000000000000001000000000000000000000001000000000000000100000010270000010000000000000020000000000000005E
:404C00000000000000000000010000000000000000000000010000000100000001000000010000000100000001000000040000000200000010000000200000000200000035
:404C4000080000000100000000000000040000000200000010000000200000000200000008000000A102000095010000DD0700008507000009080000B10700002937000019
:404C8000293700002937000029370000293700002937000000000000000000000000000000000000010000000000000000000000616C726D5F316D7300000000616C726D4B
:404CC0005F686D690000000065765F6576656E745F6F6E44617461007265735F686D690074736B5F6261636B67726F756E64000074736B5F696E69740000000074736B5F37
:404D0000696F000074736B5F636F6E74726F6C0074736B5F73797374656D000074736B5F686D69004300232D302B2000686C4C00656667454647003031323334353637389E
:404D400039414243444546003031323334353637383961626364656600000000F8B500BFF8BC08BC9E4670474D000000D9210000F8B500BFF8BC08BC9E4670472900000095
:404D8000904D0000C880FF1F8802000080170000000000002C480000020000001448000002000300BC480000030000008C480000040000000000000000000000284A000067
:404DC000000000000000000000000000000004000000FFFF0A3C000000000000000004000000FFFF503C00000000000000000000004A000000000000000000000000000093
:404E0000000004000000FFFF0A3C000000000000000004000000FFFF503C00000000000000000000D8490000D09AFF1FB04C0000BC4C000000000000FFFFFFFFFFFFFFFFF7
:404E4000FFFFFFFFFFFFFFFFFFFFFFFFFFFFFFFFFFFFFFFFFFFFFFFFFFFFFFFFFFFFFFFFFFFFFFFFFFFFFFFFFFFFFFFFFFFFFFFF0100000002000000030000000400000058
:404E800005000000FFFFFFFF020000000100000004000000050000000100000003000000010000000100000001000000010000000100000001000000FFFFFFFFFFFFFFFFE3
:404EC000FFFFFFFFFFFFFFFFFFFFFFFFFFFFFFFFFFFFFFFFFFFFFFFFFFFFFFFFFFFFFFFFFFFFFFFFFFFFFFFFFFFFFFFFFFFFFFFFFFFFFFFFFFFFFFFFFFFFFFFFFFFFFFFFF2
:404F0000FFFFFFFFFFFFFFFFFFFFFFFFFFFFFFFFFFFFFFFFFFFFFFFFFFFFFFFFFFFFFFFFFFFFFFFFFFFFFFFFFFFFFFFFFFFFFFFFFFFFFFFFFFFFFFFFFFFFFFFFFFFFFFFFB1
:404F4000FFFFFFFFFFFFFFFFFFFFFFFFFFFFFFFFFFFFFFFF030000000300000003000000030000000300000003000000C84C0000D84C0000E04C0000F04C0000FC4C00004B
:404F8000044D0000104D00001C4D0000C89AFF1F00000000A098FF1F7F800000030000000000E02EC05D00001800000000366E01000000000000000000000000000000001A
:404FC0000000000000000000000000000000000000000000244D00000000000000000000000000000000000000000000000000000000000000000000000000000000000040
:405000000000000000000000000000000000000000000000EC82FF1F00000000000000000000000000000000000000000000000000000000000000000000000000000000E4
:405040000000000000000000000000000000000000000000000000000000000000000000000000000000000000000000000000000000000000000000000000000000000030
:4050800000000000000000000000000000000000000000000000000000000000000000000000000000000000000000000000000000000000000000000000000000000000F0
:4050C00000000000000000000000000000000000000000000000000000000000000000000000000000000000000000000000000000000000000000000000000000000000B0
:40510000000000000000000000000000000000000000000000000000000000000000000000000000000000000000000000000000000000000000000000000000000000006F
:020000040003F7
:0200000480007A
:40000000024F004006520040015B0040046400400465004027000140360101403A020140450301402C0401405105014051060140490701404F0801403B090140560A0140D5
:40004000410B0140500C0140480D0140440E0140340F01402A1401404B1501402916014052170140331801404D190140321A0140581B01400B4001400F4101401242014039
:4000800005430140024401400B45014009460140064701400448014006490140134C0140134D01400B5001400251014001400A4B0001010208CC096610201128278484017D
:4000C0008A0F8D0F8F0F850F8638870F887200040304060207010B0211021B081F1020042404250829042D012E013004311F3202340139023E013F01580459045C225F017D
:4001000089018D0191019F01A501A901AD01AE01B001B301D804D904DC22DF010120028003120440052808510A100B020C110D010F101024124113101540168019281A10D9
:400140001B291C401E401F0123C02720284029282A802B022E402F2830043120324233103602378039013A213B443E803F108020841087408B208D08C0EFC27FC49FCA7FBF
:40018000CC9FCE3FE201E620041007010C100D0110091101120614021501160D18101C051E0A24032501260C29012C102F01320F3410350138203A083E10580459045C20A8
:4001C0005F018080824086088A048B018E01904092809420961098089B029C02A004A401A810AA20AE02B0FFB101B302BA20BE01D409D804D904DB04DC23DF010082012866
:400200000302048409200A750B800C820D080F081020110112021314141017801A881D081F202101220A2310240829282B422D282E40321A360A3A203B803C803D044FC02B
:40024000588059045A025B2063028120862189048B408E4092409340954396809714988099289E60A301A520A602A702A880B280C0AFC2FFC4AFCA7FCCC7CE5CD60FD80808
:40028000E401EA20EE011B0131015602573D580459045B0F5C225D205F0188108A0C941C96029A03A00CA211A414A809AA10AC10B41FC035C104C5C0C6BEC80EC9FFCAFF5A
:4002C000CBFFCEF0CF44D00CD401D804D904DA04DB0FDC23DD23DF01E6C0EA40EB020080012807080B800E28110413121401162017111E082080210229292D282F40302020
:4003000031023501370239043B903C803D043F1047094E024F02554056205B205D806080680169416A147020720178027C0282048402884089018B428D809106920893D03B
:400340009541961799289C109D049E40A108A4EBA804AB80AF20B008B320B444B704C047C268C4FECAE7CC85CE7ED0C0D210D614D801DE81E204E404E642E840EA10EC1009
:4003800001030304060C112012081345140C15131603174C1B881D131E031FC42001220E24012606298A2B542F80320F3330350F37C839083A083BA0580459045C335F0172
:4003C00081608B048D049101950499049D04A104A507A738A90AAB10AD56AF09B17FB902C065C101C230C5DEC6FCC7B0C82FC9FFCAFFCBFFCC22CEF0CF08D004D440D80401
:40040000D904DA04DB04DC02DF01E2C0E440E501E610E711E8C0E901EB11EC40ED01EE40EF01008001280308071008800B800C010E221104131017091E201F04210226A047
:400440002719281429402A422C012F06302031023204334036823718380239603F024184480249444A084B0350415210621063217A03804A8502910693D0960298029928A2
:400480009C119D849E409F19A040A148A301A48AA612AB20AC80B204B310C027C2B9C436CA3FCCFFCE8DD00AD20CD80EE003E204EA01EE02015C032204270504064808122A
:4004C00009180A040C040D1C0E120F61109A1110120514C1157F1632181220162363241225082604281629672B182C842F0430E0311F321D3358340737383A0A3B82528053
:40050000580459045B045C305D105F01820184028501860C8702880489028A1B8B048C048D0D8E18901C91029203930D9410950D9810990D9C109D029F08A010A50DA90D73
:40054000AA10B003B10FB41CBA20BB02D804D904DF01009401020484051008280AC00B020EA41120130214281580170219021A041C3C1EE01F1021022541260C2820292027
:400580002C202E012F06311232443508370138943D823E2875018140824096409720980199089B409C109D01A410A804AB04AF08B040B188C0EFC27FC4FACAF6CCCFCEFEC3
:4005C000E002E880EA04EC80030106020C011302160217021B041C0426042E013104320233013404350236013E044030410649FF4AFF4BFF4DA04F04501852805407580418
:4006000059045A045B045C115D115F01604062C06440654066C068C06AC06CC06EC08302840188019301A402B002B102B201B501B808B908BE05BF04C030C102C5D5C712C0
:40064000C833C9FFCAFFCBFFCDAFCE0FCF04D018D203D302D804D904DA04DB04DC12DD21DF01E040E2C0E440E540E6C0E8C0EAC0ECC0EEC00048040405800640074609084E
:400680000A020C110E1010221422154119541C801F082010210822112460270830223108350138023E0240104508460848044C204D025406560A5956664067026E806F04C0
:4006C00070018030864088038901921093029540966097209C019F0AA410AA10B441B510C0F5C275C4B5CC87CE81D062D204D60FE020E4A0EC04060107040A040E08100821
:40070000160417021E021F01200123082602300131083202330434083501360437024030410649FF4AFF4BFF4DA04F045018580459045A045C115D015F01604062C0644036
:40074000654066C068C06AC06CC06EC087028B028F019901B302B701BF04C060C103C5D5C601C702C817C9FFCAFFCBFFCDAFCE0FCF04D018D407D804D904DA04DB04DC12F7
:40078000DD11DF01E040E2C0E440E540E6C0E8C0EAC0ECC0EEC0000801400508060A08020B020C800D0A100111881220130217091C411E041F082244252227112D202E12C5
:4007C00031203508368038883A103E0841044610470849094A044C0450C45104528059115A885E085F08800281048708880489208D0493029540964497209A0A9C029D24DD
:400800009F12A108A410A540A620AB40B108C0E5C2B9C43DCA80CC54CE4ED042D224D60FE020E442EAA04030410249FF4AFF4BFF4DA04F045018580459045A045C225D01EE
:400840005F01604062C06440654066C068C06AC06CC06EC0840289018A049201A604A701AA02AF01B002B101B201B404BE10BF01C030C102C5D0C620C751C83AC9FFCAFF26
:40088000CBFFCDAFCE0FCF04D018D280D407D804D904DA04DB04DC21DD11DF01E040E2C0E440E540E6C0E8C0EAC0ECC0EEC00001012004100710082209400A040C02114062
:4008C00012A0130216281C501D081E08274029242D282E402F1032A0340236A0380139403B063C213D603F044010412045284D015520562A5C605D015E08740281108940C7
:400900008B048F01C06AC219C46DCA76CCBCCEFBD066D6F0E040580459045C225F0182018D0190019302940199069D069E01A904AA01B001B306B501B908BE01BF14C002E4
:40094000C740C9FFCA07CBFFCC40CD20CEF0CF05D008D401D804D904DA04DB04DC22DD33DF01E040E1A8E240E3200109021803010582062C070109030D100EA00F021204BC
:40098000134014041503165017801E4027282A502C042D892F0432083301350236FA39203A083B403D823E184402454047204D0257025C025D105E405F0882308592860C72
:4009C00089118B018E108F8091029348962499089A289B81A140A2A8A301A602A702AE03B204B744C0FFC2F8C4F3CAFCCCF3CEFED020D6F0E01CE202E402E604EA08EC280E
:400A00005418580459045B045C225D305F01800486038701880489048E048F049001950498049B029D049E04A004A104A708AB08AD01B002B104B304B404B503B601B708F1
:400A4000BE10BF45D602D728D80FD904DB04DC92DF010004014003440508068007800A480B020D010E04108012081310140415011628170119C01A401B102004218422011C
:400A800029442A022B042C042D092F48321433403480380439603EA43F50408041015E01618862406520664069606A086B4470807202780281048D60910293DA9568960AF0
:400AC000980299089C809D809E029F40A148A2A0A30DA602A712ACB4AD80AE08B704C03FC25BC478CAEFCC1ECE7ED680D832DE01E601EA0AEE02010202C304EF050C071095
:400B0000084109140A100B280C0F0D020EE010C3130114E31502160C19381C821D101F24200824042701280C29022C0C2EE33010320F333C34C035023620370138803908B2
:400B40003A083F5056025711580459045B045C035D305F01D804D904DC22DF010014026004410508060808100B800D480E4010011280140217291D281E021F06258026106F
:400B8000271028102A402F24300132A0334035083641371038103B803C683D825E206C046D406E087420762077297C027D02824286048D918F0194809609970A98019908D0
:400BC0009B409C389D309E289F03A014A141A248A420A510A702AC50AE04AF10B102B604C0FEC2BAC4F9CA6ACCFDCEFCD620E042E210E404EA40580459045B045C225F01C5
:400C0000849F8C018E2694149649989FA00AA251AC80B007B218B460B680BE10C031C105C206C402C5C0C6E0C80AC9FFCAFFCBFFCC62CDA0CEF0CF41D00CD608D804D904B7
:400C4000DA04DB04DC23DD93DF01E640E702E910EA30EB10ED10EE10EF1200200350044809100E1810111240154017021C411DA01E5128102A402C102F02300133503401EF
:400C80003758388039083C103D2045A84C014E4857205C80670268826A247105720273048004814482108311841186408702881089048A088B4A8CC18D18900891409415BB
:400CC000958096E59784980199089B409C109D019E4AA108A20CA482A720A880AC08AD20AE04AF04B022B440B530B610B702C0AEC262C49DCA5ACCFDCE2AD070D230D61086
:400D0000D810E010E491E896EC30110216803080330836103A083E808A10C430CC70CE600308048009080F8056105B409A10A101A480A610A708B208C0C0C230D4C05308DA
:400D40005B0883088C809440A101A480A840AB40AE10B440B508B740D420D640E220E8A0EE101B089440A101A708C6107108DC0153015B0266048702A508A708B308D40110
:400D8000D602D801EA041B082420A508A708AB01B604C608C801EC0844018720A810B108D004EC0425029440A101C88000408D019440A101B102C040512056205808591033
:400DC0005F8861026480800887808F089B209C01A001B001D407D607D803E402E801101073207401808088109B209C80A001AA20AD02B001B120B510C408DC01DE04E2042A
:400E0000E802EC05000F080D0A0D0C0F0E06100D11011A0D1B011C0D1D01003F100A000010340000400000003CC0C00000030300800040BCBC00B4000000000000FFFF002B
:400E4000FF0000000039390038000000043838000800000000010000000000000000000000000000000000000000000000000000000000000000000000000000000000004C
:400E80000000000000000000000000000000000000000000000000000000000000000000000000000000000000000000000000000000000000000000000000000000000032
:400EC00000000000000000000000000000000000000000000000000000000000000000000000000000000000000000000000000000000000000000000000000000000000F2
:400F000000000000000000000000000000000000000000000000000000000000000000000000000000000000000000000000000000000000000000000000000000000000B1
:400F40000000000000000000000000000000000000000000000000000000000000000000000000000000000000000000000000000000000000000000000000000000000071
:0200000490006A
:0400000000004007B5
:0200000490105A
:04000000BC90ACAF55
:0200000490303A
:02000000B22329
:0200000490402A
:4000000000000000000000000000000000000000000000000000000000000000000000000000000000000000000000000000000000000000000000000000000000000000C0
:400040000000000000000000000000000000000000000000000000000000000000000000000000000000000000000000000000000000000000000000000000000000000080
:400080000000000000000000000000000000000000000000000000000000000000000000000000000000000000000000000000000000000000000000000000000000000040
:4000C0000000000000000000000000000000000000000000000000000000000000000000000000000000000000000000000000000000000000000000000000000000000000
:0200000490501A
:0C00000000012E16106900012E37C28C82
:00000001FF