:400000000080002011000000BD110000BD11000008B5044B1A6803F53F5302331A6001F0D5F800BFFA46004010B5054C237833B9044B13B10448AFF300800123237010BD0D
:40004000F882FF1F00000000682B0000084B10B51BB108490848AFF300800848036803B910BD074B002BFBD0BDE81040184700BF00000000FC82FF1F682B0000C880FF1F7A
:400080000000000008B5002001F0EEFA08BD00BF684620F007018D4619B572B6EFF311841E4B1B68DBB20F2B10D9103B23F0030202F1604202F564421168DB0003F018036D
:4000C000E0229A400A4022FA03F306E00F2B03D1134B1B681B0E00E0002383F31188114A136801331360012B01D102F08BFB62B6FFF7C8FF72B684F3118801F0AFFC094AC9
:400100001368013B13601BB902F085FB02F049FB62B6BDE819408546704700BF04ED00E020ED00E07C84FF1F08B562B645F6BF52054B1A60054A136843F002031360002066
:4001400001F088FDFBE700BF14E000E010E000E008B572B600F046FA01F032FE00F098FA62B608BD08B5FFF7F3FF032000F0BEFA01F0D4FD144801F03DFE144A136843F069
:400180000503136000F0D4FA18B1114801F032FE02E0104801F02EFE05221146002001F0E5F8022001F06EF8032001F06BF8052001F068F8042001F065F8002001F062F8BD
:4001C00001F08EFD08BD00BF6C2B000010E000E08C2B0000C02B000008B500F08DFAFCE730B583B0224B9B681A68002A3BD0204A128802A820F8082D1B689847E8B9BDF8ED
:400200000010ADF804101A4B9A6819800021596002219970556993682BB33DB923E0996855F8240001F0C6FA013400E00024104B9B681A699442F2D315E00D4B03229A700B
:400240009B68DD69DB6873B13DB90CE0D96855F8240001F0AFFA013400E00024044B9B689A699442F2D3002000F056FA03B030BDCC80FF1F30B585B010F0020F31D00023BE
:4002800019468DF80430274B9B78022B07D1254B1B88ADF80C30ADF808308DF804309DF90430072B00DD59001F4B9A68197000215960022159705569936873B13DB90CE066
:4002C000996855F8240001F075FA013400E00024154B9B681A699442F2D3012000F01CFA1EE010F0040F1BD000210F4B9A6819705960022159705569936873B13DB90CE0E5
:40030000996855F8240001F055FA013400E00024054B9B681A699442F2D3012000F0FCF905B030BDCC80FF1FD880FF1F38B500231946184A5278022A01D1164A1178154AF8
:400340005268B2F5FA7F00D20B46134A9168137000235360022353704D698B6873B13DB90CE0996855F8240001F024FA013400E00024094B9B681A699442F2D3022000F0F9
:40038000CBF9054B5B78022B03D1034883685B68984738BDD880FF1FE480FF1F10F0100F33D038B54FF00003184A5278022A01D1164B1B784FF00001DBB20BB94FF001014F
:4003C000134B9A68197000215960022159705569936873B13DB90CE0996855F8240001F0E9F9013400E00024094B9B681A699442F2D3032000F090F9054B5B78022B03D1DC
:40040000034883685B68984738BD7047D880FF1FFC80FF1F08B5042000F07EF908BD00BF00B583B0002301930E2001F043FA01A9032001F09FF9019801F06EF9019A03215B
:40044000014800F0BBFCEFE7F82B000010B582B000240194152001F02DFA01A9022001F089F9019801F058F9019B13F0010F09D022460221064800F089FC053414F5807F65
:4004800000D90024019A0121024800F097FCE1E7142C0000242C000008B5002000F078F818B1002001F08EFB08BD012000F070F818B10421032001F07DF908BD684620F084
:4004C00007018D4619B572B6EFF311841E4B1B68DBB20F2B10D9103B23F0030202F1604202F564421168DB0003F01803E0229A400A4022FA03F306E00F2B03D1134B1B6814
:400500001B0E00E0002383F31188114A136801331360012B01D102F075F962B6FFF7BCFF72B684F3118801F099FA094A1368013B13601BB902F06FF902F033F962B6BDE89A
:4005400019408546704700BF04ED00E020ED00E07C84FF1F08B5002000F076FC01F0C0FB08BD00BF00B583B000230193082001F0A1F901A9052001F0FDF8019801F0CCF841
:40058000019A0121014800F019FCEFE7302C000008B503281BD8DFE800F002080E1401F0CFFD012815D0002008BD01F0D1FD012811D0002008BD01F0D3FD01280DD00020FB
:4005C00008BD01F0D5FD012809D0002008BD002008BD012008BD012008BD012008BD012008BD00BF08B501F04FFE01F061FE002008BD00BF70B506460D46002001F05CFE32
:40060000002001F065FE84B2012001F061FE80B2D4F5006400D50F3444F307143470D0F5006000D50F3040F307102870002070BD38B504460D46032824D8DFE800F0020957
:40064000101E084601F070FD104B1D55002038BD084601F051FD0D4B1D55002038BD084601F056FD094B1D55002038BD29462046FFF7DEFF0134E4B200E00024022CF5D972
:40068000002038BD6FF0130038BD00BF1483FF1F38B50024254609E00021094B19552046FFF7C6FF00B105460134E4B2022CF3D901F020FC01F098FC01F010FD284638BD2D
:4006C0001483FF1F70B50E461546074C34F8100001F0ACFC34F8160001F02EFC34F8150001F0AEFB002070BD3C2C000008B5002102F00CF8002008BD08B5064B93F90030D9
:400700000F2B04D102F022F80022024B1A70002008BD00BF1783FF1F012303FA00F0034A1378184310700020704700BF1783FF1F044B1B7803F0080303F0FF0003B1012090
:40074000704700BFC080FF1F10B50446013001F051FB064801F04EFB04F1110001F04AFB034801F047FB002010BD00BF4C2E0000F42B000038B5134B988908B319461C8976
:40078000631C9BB2104AA2FB03525209642505FB12330B810138888101EB44018B7B13B1012B04D006E0002001F0A2FD02E0012001F09EFD034B03EB4404E07B01F0A4FD99
:4007C00038BD00BF1883FF1F1F85EB5130B5ABB01B4B9B89632B17D92AAD032305F8A83D184B1868CDF80100174C0FCCCDF81100CDF81510CDF81920CDF81D302846FFF76A
:40080000A3FF6FF0070019E00D4D6C89621C92B205EB4404A073E1730C49A1FB02014909642000FB11226A8101339BB2AB81012B03D1FFF79FFF002000E000202BB030BDFB
:400840001883FF1FA8330000AC3300001F85EB512DE9F04180460E4617461D462A210020FFF7B4FF00210120FFF7B0FF194C94F8D6104144C9B20120FFF7A8FF0021012032
:40088000FFF7A4FF94F8D6103944C9B20120FFF79DFF2B210020FFF799FF00210120FFF795FF94F8D7103144C9B20120FFF78EFF00210120FFF78AFF94F8D7102944C9B299
:4008C0000120FFF783FF2C210020FFF77FFFBDE8F08100BF1883FF1F2DE9F0411F46BDF818501F4BB3F90630834236DD90461C4AB2F8DA20914230DA00EB0804013C9C4234
:4009000002DB1B1A0FFA83F87B18013B9A4201DC571A3FB2C0B2C9B2CB19013B00EB0802013ADBB2D2B2FFF793FF2E0AEDB2012001F0DEFC0FE031460220FFF747FF29466B
:400940000220FFF743FF013C24B200E04446002CF1DC013F3FB2002FF8DCBDE8F08100BF1883FF1F002821DB114BB3F9063098421CDA00291ADB0E4BB3F8DA30994215DABD
:4009800010B51446C0B2C9B24B1C421CDBB2D2B2FFF75EFF012001F0ABFC210A0220FFF715FFE1B20220FFF711FF10BD704700BF1883FF1FF8B51E46164BB3F90630834222
:4009C00026DD1546134BB3F8DA30994220DA0A44013A934201DC5D1A2DB2C0B2C9B24B19013BDBB20246FFF733FF370AF6B2012001F07EFC08E039460220FFF7E7FE314646
:400A00000220FFF7E3FE25466A1E14B2002DF2D1F8BD00BF1883FF1F2DE9F04F8BB00290039115460493BDF850709DF854A07F4B1A68002A40F09080B3F90630014683429D
:400A400040F3F180794BB3F8DA300398984280F2EA800AEB4A0253000B44012B00F1E38000EBCA03012B00F1DE804FF00008894683460595049E4EE0059B03EB830343448E
:400A80006B4A134493F8585000243EE015F0010F1BD0BAF1010F09D104EB0B0108EB0900324609B200B2FFF75DFF2BE01FFA8AF00FFA8AF204FB00B108FB0090009613469D
:400AC00009B200B2FFF708FF1CE0BE421AD0BAF1010F09D104EB0B0108EB09003A4609B200B2FFF73FFF0DE01FFA8AF00FFA8AF204FB00B108FB00900097134609B200B254
:400B0000FFF7EAFE013464B26D08072CBEDD08F101084FFA88F8B8F1040FADDD049BBB4200F08180BAF1010F08D1029805303B460822039900B2FFF73DFF74E01FFA8AF333
:400B400003EB8300029A10440097DB005246039900B2FFF7C1FE66E0137AEB1ADBB2506800EBC301D2F800B030F8337091F80280CB78079391F90530089391F90620099269
:400B8000BAF1010F04D91BB2059313B2069302E000230693059300231C46994640E05E1CF6B213F0070F03D17B1C1BF807409FB214F0800F27D0BAF1010F0DD1099B039A6B
:400BC00099184944089B029A98182844049A09B200B2FFF7C7FE16E0059B58191FFA8AF3069A02EB09010FFA8AFE039A01FB0321029A00FB0320049B00937246734609B2FC
:400C000000B2FFF769FE6400E4B20135EDB2334600E000254545C2D309F101095FFA89F9079A9145F5D30BB0BDE8F08F1883FF1F502E000070B582B04E4B1B68002B43D153
:400C40000A280BD14B4B0022A3F8DE201979B3F8E02002EBC102A3F8E02088E00D2800F08680444B5B79ABB1424A117901EB41046300B2F8DE402344B2F90620934209DDD6
:400C80003C4B0022A3F8DE20B3F8E02002EBC101A3F8E010374CB4F8E230B4F9E010B4F9DE5022790192B4F8E420009202462846FFF7B2FE237903EB43035A00B4F8DE30A4
:400CC0001344A4F8DE3052E00A280CD1294A0021A2F8DE10997A1079B2F8E03000FB0133A2F8E03043E00D2841D01A7A90423ED3597A88423BD8821A5C6804EBC204A278A8
:400D0000E1785AB351B394F905501A494979A9B118490E792A44B1F8DE5002FB0652B1F906108A420ADD134A0021A2F8DE109B7AB2F8E01006FB0316A2F8E0600D4AB2F849
:400D4000E230B2F9E010B2F9DE5016790196B2F8E420009202462846FFF75EFE2179054B1879B3F8DE2000FB0122A3F8DE2002B070BD00BF1883FF1F10B5044602E0013427
:400D8000FFF758FF20780028F9D110BDF8B506460F46154600240DE006EBC4039A88B5FBF2F302FB13531BB956F83430002098470134A4B2BC42EFD30020F8BDF8B5054666
:400DC0000E461746002409E005EBC4035868384202D055F8343098470134A4B2B442F3D30020F8BD08B501780020FFF721FC08BD0020704708B5017829B9002211461046DA
:400E0000FFF760FC03E000221046FFF75BFC002008BD00BF10B582B004460DF106010DF10700FFF7E7FB9DF9073023709DF80630637002B010BD00BF08B50248FFF79CFF1D
:400E4000002008BDBC330000184B5B68034413F1011F01D8154A5360144B1B69034413F1011F01D8114A1361104BDB69034413F1011F01D80D4AD3610C4B9B6A034413F117
:400E8000011F01D8094A9362084B5B6B034413F1011F01D8054A5363044B1B6C184410F1011F01D8014B1864704700BFCC80FF1FFEE700BFF0B40022174611E050F8276034
:400EC000F3B226F0FF0608E001EB420511F812406D78A5550132013BDBB2002BF4D10137292FEBD9F0BC704708B50A46002101F032FE08BD38B500242D4B1C805822023352
:400F00001A70022202331A8018232A490B700E200231088002310B70192502310D8002310B7041F2BF200231088002310B70224B1A7008224FF040231A70032103F5007371
:400F400019701E4B1B78DBB21D490B701D4B1A8041F25122023B1A800CE01B4B1B7803F0010343EA440404F003044FF4F07001F0CFFC013D0DB1032CEFD115B90320FFF782
:400F800097FF124B4FF480721A8007221A7000220F490A704820023108701A700222033B1A700C4A137843F01F03137038BD00BF80400040864000400043004008010049F7
:400FC000A146004022420040254200400440004006400040A2430040F8B5164B1B78DBB2154E3478E4B2154F3D78EDB203F00701134A11701B090132137044F00303337035
:4010000045F003033B7003220E4B1A7040230E4A13700232137030220C4B1A70202203331A700A2001F068FB3D7034704422084B1A70F8BDCF010049F8460040F9460040BB
:401040006E5800400D51004001590040205B00407658004008B501F073FD08BD38B572B600240CE03D4D630019194A0011462A44084691882858FFF737FF0134E4B2072C22
:40108000F0D900240BE03548A20011194B0003441A8F596B186BFFF7DDFF0134E4B2012CF1D92F494FF09040FFF704FF20222D4B1A7004212C48FFF717FF04222B492C4882
:4010C000FFF7C8FF2B4A137843F0020313701032137843F002031370274C237843F040032370A2F58632513A137843F010031370082222492248FFF7ADFF0A22214922480A
:40110000FFF7A8FF0A2221492148FFF7A3FF082220492148FFF79EFF082220492048FFF799FF08221F492048FFF794FF1F4A137843F0080313701E4D61232B70FFF7DAFED3
:4011400081232B7001221B4B1A70FFF745FF0E2221461948FFF77EFF38BD00BFD4340000A80000481260004000760040740E00480876004003500140A04300403C0E004893
:4011800002510040440E0048C0510040500E0048F05100405C0E004812510040640E0048225100406C0E004832510040224300400048004004000840B043004008B501F0E9
:4011C00093FC03680C2B00D1FEE7FEE708B5104E104D16E029686B68AC68002204E051F8040B43F8040B0432A242F8D1E868002203E0002143F8041B04328242F9D11035D9
:40120000013E002EE6D101F075FCFEF78DFFFEE701000000EC37000008B5114A114B1A60114A136843F40073136000230AE0032B03D80E4A52F8231000E00D490D4A42F80B
:40124000231001332F2BF2D90B4B1A780B4B1A70084A0B4B1A60FFF701FF01F06BF908BD0004FA050CED00E014ED00E000000000BD1100000080FF1FBC760040C080FF1FEF
:4012800008ED00E038B5EFF3108572B605284ED82D4B53F82030002B4BD02B4A013B42F820302A4B53F82030032B07D10222274B43F820200022264B43F8202000F03EFC87
:4012C000244B1B68002B36D1234B1C6800F014FCB0F1FF3F31D0214B53F82020204B1B689A422CD9B4F1FF3F03D00221174A42F824101C4A52F820201343194A136000224C
:40130000124B43F8202000F0B3FB174B53F820304BB10024144B43F8204040F0004001F083FA20460CE001F07FFA002008E0032006E0042004E0002002E0002000E000204B
:4013400085F3108838BD00BF6881FF1F1C82FF1F3084FF1F7C84FF1F0082FF1FB43600005084FF1F883600000084FF1FF8B5EFF3108472B628BB00EB4005AB00184DEB5869
:4013800003EB4306B500174E75598D421BD34AB103EB43039E00134B1E44B3689A4214D3954214D3A9B103010F4DEB589BB90301EE180127EF507260013900F087F80020CB
:4013C0000AE0032008E0082006E0082004E0082002E0082000E0072084F31088F8BD00BF383600004C3600005494FF1F18B108B5C368984708BD704708B508B1406800E022
:401400000020052816D80C4B53F8203093B10A4A013B42F82030094B53F82030032B07D10222064B43F820200022054B43F8202000F084FB08BD00BF6881FF1F1C82FF1F99
:401440003084FF1F18B1034640689B6801E00023184605281DD80F4A52F82020CAB10E4A52F82010032914D010B50C4C54F820201A4344F820200A4A52F82020134207D08D
:40148000012905D10222044B43F8202000F056FB10BD7047583600001C82FF1F3084FF1F1884FF1F80B108B50378012B06D013B1032B06D008BDFFF79FFF08BDFFF7C2FF9B
:4014C00008BDFFF793FF08BD704700BF30B400EB40029300214AD258214B03EBC2035C68B4F1FF3F04D11E4B03EBC20250602DE01C4B03EB04139B6899420AD2184D05EB3D
:40150000C2025060174A02EB04125B1A93601DE01C46144B03EB04139A68891ADB68B3F1FF3F05D00F4A02EB031292689142EFD2B3F1FF3F05D00B4A02EB031295686D1A8E
:401540009560084A02EB0414E0601C46054B03EB00108160C46030BC704700BF383600001881FF1F5494FF1F38B5394A02EBC0035C6852F83030013342F8303000EB400115
:401580008A0034498A58934203D90022304B43F83020B4F1FF3F59D02F4B03EB04139B68002B4ED1214600E019462B4B03EB0113DB68B3F1FF3F05D0274A02EB031292680C
:4015C000002AF1D0244A02EB01114FF0FF32CA601F4A02EBC0004360B3F1FF3F07D01E4A02EB03139A68013A9A6000E02C4604EB44029300194A13441B7A7BB904EB440213
:401600009300164A13445A68154B53F8223003EB83039A0013481044FFF744FF0E4B03EB0413DD68596821B101392046FFF74EFF03E024010022084B1A51B5F1FF3FD5D120
:4016400038BD054A02EB0414013BA36038BD00BF1881FF1F4C3600005494FF1F38360000483600002436000038B5EFF3108572B6002838D1FFF778FF204B1B68002B34D161
:401680001F4B1C6800F038FAB0F1FF3F2FD01D4B53F820201C4B1B689A422AD9B4F1FF3F03D00221194A42F82410194A52F820201343154A13600022144B43F8202000F0D5
:4016C000D7F9144B53F820304BB10024114B43F8204040F0004001F0A7F820460AE001F0A3F8002006E0032004E0002002E0002000E0002085F3108838BD00BF7C84FF1F1C
:401700000082FF1FB43600005084FF1F1C82FF1F883600000084FF1FEFF3108372B6114A1168114A126882B9B1F1FF3F0FD00F4A52F821206AB110B40D4C54F8212022EA1C
:40174000000044F82100002007E0022002E0022000E0012083F31088704783F3108810BC704700BF0082FF1F7C84FF1F583600003084FF1F05280FD80B4B53F820306BB18A
:401780000A4B53F82030032B0AD059B1084B53F820300B60002070470320704701207047072070470E207047583600001C82FF1F3084FF1F38B5EFF3108472B6052853D883
:4017C000324B53F82030002B50D0314B53F82030032B4DD02F4D55F820200A4345F820202D4A52F82020114244D0012B44D10222274B43F8202000F0A1F9284B1B68002BEC
:401800003CD1274B1D6800F077F9B0F1FF3F37D0244B53F82020244B1B689A4232D9B5F1FF3F03D002211A4A42F825101F4A52F8202013431C4A13600022154B43F82020BF
:4018400000F016F91A4B53F820304BB10025184B43F8205040F0004000F0E6FF284612E000F0E2FF00200EE003200CE001200AE0072008E0002006E0002004E0002002E081
:40188000002000E0002084F3108838BD583600001C82FF1F3084FF1F1884FF1F7C84FF1F0082FF1FB43600005084FF1F883600000084FF1F38B5EFF3108472B6364B1D68A3
:4018C000364B1B68002B5DD1B5F1FF3F5CD0344B53F82530002B59D0324B53F82530034256D1314B43F825000122304B43F825202F4B53F825002F490B6823EA00030B6035
:401900002D4B43F825202D4B53F82520224B1A6000F0F2F8B0F1FF3F06D0294B53F82020244B1B689A420DD81B4B1868B0F1FF3F03D000221D4B43F8202040F0004000F082
:4019400073FF1AE00021194A42F82010184A52F820201343174A136000F08AF8164B53F8203043B10022144B43F8202040F0004000F05AFF01E000F057FF00200A4B43F809
:40198000250006E0022004E0022002E0012000E0002084F3108838BD0082FF1F7C84FF1F583600003084FF1F1884FF1F1C82FF1F883600005084FF1F0084FF1F0482FF1F63
:4019C000B436000008B500F053F8084B53F8203043B10022054B43F8202040F00040044B186008BD024B186008BD00BF0084FF1F8084FF1F10B500F07FF8124B1B68B0F180
:401A0000FF3F1AD0104A52F82010104A1268914213D9B3F1FF3F03D002240D4941F8234000210B4B43F820100A4B53F820301A43064B1A60FFF7C6FF10BD43F00043064A02
:401A4000136010BD0082FF1FB43600005084FF1F1C82FF1F883600008084FF1F034B1B6813B10022014B1A60704700BF7084FF1FF0B4184B19880B0A174AD356B3F1FF3FE0
:401A800001D1535601E008335BB2144D55F82320134850F82200134E56F8224045F82340114D2F6846F822702A60B4F1FF3F09D10E4A42F82340012202FA03F321EA0301F6
:401AC000044B19800A4B19680A4A42F820101860F0BC70474C84FF1F18350000C081FF1F2494FF1F3881FF1F4884FF1F8081FF1F0082FF1F0482FF1F0C4B1A88130A0C4990
:401B0000CB56B3F1FF3F01D18B5601E008335BB2B3F1FF3F06D0074A52F82320064B53F8220070474FF0FF30704700BF4C84FF1F18350000C081FF1F2494FF1F30B4144B24
:401B400053F82020134C2368134951F823502560124C44F823004FF0FF3441F82340104951F82210A1420AD10E4951F820400E480188214301800D4941F8223002E0064821
:401B800040F82130064941F8223030BC704700BF5081FF1F4884FF1F3881FF1F2494FF1F8081FF1FB43600004C84FF1FC081FF1F0022014B1A60FEE77884FF1F08B5FFF7EA
:401BC000F7FF00BF08B572B6FFF7F8FF10B150F8210070474FF0FF30704700BF0122014B1A60FEE77884FF1F70B50546124B53F8306000241CE0104B03EBC50321465868B1
:401C0000FFF7E4FF0D4A52F82030013B42F820300B4B53F82030032B07D10222084B43F820200022074B43F82020FFF787FF0134B442E0D370BD00BF183600006881FF1FA1
:401C40001C82FF1F3084FF1F18B908B5FFF7CCFF08BD7047194B1A4ADA621A4A9A631A4ADA63EFF3108272B6184B1B6813BB10B5044600F053F8164B1C600122134B1A6093
:401C80002046FFF7E1FFFFF737FFB0F1FF3F0ED0104B53F82030104A11680B43136000220E4B43F82020FFF7E3FE00F0BDFD62B6FFF794FF82F31088072070470080FF1FD4
:401CC000E9270000AD270000910000007884FF1F6494FF1F883600005084FF1F1C82FF1F08B5EFF3108272B6094B1968094B1B6833B94FF0FF30084B43F82100002000E0C5
:401D0000022010B9084600F0E8FD82F3108808BD0082FF1F7C84FF1F2081FF1F38B50D4B1D68EFF3108472B600F02EFD0A4A136843F07F431360094B6B640321012000F034
:401D40000BFD074A136843F00203136084F3108838BD00BF08ED00E020ED00E0BD04000000E100E07222074B1A702022053B1A700622593B1A70472210331A700022B33BD5
:401D80001A7070478965004010B500F0C9FD04460A4A137843F020031370053A137843F010031370FC3A137843F01003137000F0B7FA204600F0B8FD10BD00BF99650040A4
:401DC00008B5054B1B7823B9FFF7CCFF0122024B1A70FFF7D9FF08BD5884FF1F034B1B7813F0040FFAD1024B18707047686400404864004038B5074B1B782BB938BDFFF738
:401E0000EDFF0134A4B201E005460024285D0028F5D138BD5884FF1F024A137843F080031370704779640040014B1880704700BF06680040014B1880704700BF8668004005
:401E4000014B1880704700BF46680040014B1880704700BF66680040014B1870704700BF8B640040014B1878704700BF6B640040014B188880B27047A668004008B501E017
:401E8000FFF7F6FFFFF7EEFF10F0100FF8D108BD08B5164A137803F0C00343F0090313701A32137843F0010313700132137843F001031370FF20FFF7B7FFFF20FFF7BAFFE5
:401EC0007F20FFF7BDFF3F20FFF7C0FF0020FFF7C3FF00F025FD064A137843F01003137000F022FDFFF7CAFF08BD00BF796400409B64004008B5054B1B7823B9FFF7C8FF08
:401F00000122024B1A70FFF787FF08BD5A84FF1F024A137843F08003137070477B640040014B1880704700BF18680040014B1880704700BF98680040014B1880704700BF76
:401F400058680040014B1880704700BF78680040014B1870704700BF8D640040014B1878704700BF6D640040014B188880B27047B868004008B501E0FFF7F6FFFFF7EEFF68
:401F800010F0100FF8D108BD10B5154A137803F0C00343F0090313702132137843F001031370104C237843F001032370FF20FFF7B7FFFF20FFF7BAFF7F20FFF7BDFF3F20AB
:401FC000FFF7C0FF0020FFF7C3FF00F0A9FC237843F01003237000F0A7FCFFF7CBFF10BD7B6400409D64004008B5054B1B7823B9FFF7CAFF0122024B1A70FFF789FF08BD53
:402000005B84FF1F024A137843F08003137070477C640040014B1880704700BF1C680040014B1880704700BF9C680040014B1880704700BF5C680040014B1880704700BF48
:402040007C680040014B1870704700BF8F640040014B1878704700BF6F640040014B188880B27047BC68004008B501E0FFF7F6FFFFF7EEFF10F0100FF8D108BD10B5154AE4
:40208000137803F0C00343F0090313702232137843F001031370104C237843F001032370FF20FFF7B7FFFF20FFF7BAFF7F20FFF7BDFF3F20FFF7C0FF0020FFF7C3FF00F0FD
:4020C0002FFC237843F01003237000F02DFCFFF7CBFF10BD7C6400409F64004008B5054B1B7823B9FFF7CAFF0122024B1A70FFF789FF08BD5C84FF1F044A137803F0FE03F5
:4021000000F0010018431070704700BF20510040044A137803F07F03C001C0B218431070704700BF00510040044A137803F0BF03800100F0400018431070704700510040E7
:40214000024B1878C0F3C000704700BF01510040024B1878C0F30010704700BF01510040024B1878C0F34010704700BF01510040024B1878C0F38000704700BF315100402F
:4021800010B541F6FF734FF480420121022000F087F9084C207041F6FF731A460121042000F09CF96070044800F0B6F9002000F0B9F910BD6084FF1FED22000070B52C4C48
:4021C000207800F0EDF9607800F0EAF9294B1B78FF2B03D100F052FA264B1870254D287806230246042100F063FA214E341DA4B2224645F6A031287800F06EFA29783078CC
:4022000000F00EFA6B78FF2B02D100F037FA6870184D687807230246042100F049FA164A92B22146687800F057FA114C6978607800F0F6F90121207800F096F9012160786A
:4022400000F092F900F06CFB0C4A137843F02003137000F069FB0A4B1A7842F001021A701A7842F002021A700122064B1A6070BD6084FF1F7482FF1FF0A9FF1F906400406A
:402280007564004080E200E008B5074B9B6823B9FFF776FF0122044B9A6000F0EBF8FFF78DFF024B1B7808BD6084FF1F6264004008B500F0EDF808BD044B1B7803F0FF02CF
:4022C0000BB90028F8D01046704700BF62640040C0F10100034B33F91030034A1088181A00B27047F0A9FF1FF8A9FF1F704700BF044A137803F0FD03400000F00200184327
:402300001070704730510040034B1B7813F0040FFAD0024B187070476764004044650040054A137843F0080313701032137843F008031370704700BFA243004008B50A28B1
:402340000FD00C2802D0082806D102E04FF4805209E04FF4807206E0002000F0CBF9002201E04FF480620021094B198042F2107303FB02F303F6C413064A82FB0302DB172E
:40238000C3EBE223044A1360044B198008BD00BFF6A9FF1FAD8BDB68FCA9FF1FF8A9FF1F10B500F0BDFA0446184A137843F0010313701032137843F00103137002F5AA52AC
:4023C0000832137843F0030313701822104B1A70013B1A7842F040021A701A7802F0FC021A70C822053B1A700222A3F597530C3B1A70084A137843F0080313700A2000F082
:402400007BF9204600F090FA10BD00BFAB43004006590040275B004010B504460A280DD00C2802D0082804D101E0C22207E0422205E0002000F05EF9C22200E08222034BF2
:402440001A702046FFF77AFF10BD00BF0259004008B5064A137843F0060313700C20FFF7DBFF0022024B1A8008BD00BF01590040F4A9FF1F08B5054B1B7823B9FFF7E8FF48
:402480000122024B1A70FFF78BFF08BD6C84FF1F024A137843F001031370704700590040F0B583B016461F460B4C012525700023019300932B460A460146284600F0BCF8DF
:4024C0003A463146207800F091F80221207800F07BF8207803B0F0BD7682FF1FF0B583B016461F460B4D00242C700194009423460A460146204600F09FF83A46314628784A
:4025000000F074F80221287800F05EF8287803B0F0BD00BF7782FF1F014B1B681864704708ED00E04001C0B2014B1870704700BF00E400E00B4A7F2313708021517007E005
:40254000DA0002F1804202F5F042013BDBB21370002BF5D1DB0003F1804303F5F04300221A7070477882FF1F172815D831B103010A495A5C42F020025A5405E003010749D8
:402580005A5C02F0DF025A540001044A835C43F00103835400207047012070471070004017280CD80001074BC1180A7942F004020A71C25C42F00102C25400207047012053
:4025C000704700BF1070004017280BD80001064A835C03F0F103490001F00E011943815400207047012070471070004041F6FF73994201D14FF4005141F6FF739A4201D142
:402600004FF40052172808D8C00000F1804000F5EC408180C280002070470120704700BF172805D8034B03EB0010417200207047012070471070004017281BD810B4C00063
:4026400000F1804404F5EC44D201D2B201F07F01114321709DF804201201D2B203F00F03134363709DF8083003F00F03A3700020E07001E00120704710BC704710B500F00B
:402680004FF90A4B5B78182B0BD9084A1478013B5370E30003F1804303F5F0431B78137000E0FF2400F040F9204610BD7882FF1F10F0800F0CD111F4704F0BD1C00000F197
:4026C000804000F5F04001808270C37000207047012070470120704710F0800F08D1C00000F1804000F5F0408180C280002070470120704701BE704708B5034B1B7A00FBC7
:4027000003F000F005F908BD8082FF1F0E4B1A7802F0FC0200F00300104318701A7842F080021A701A7802F07F021A7049011A7801F0600102F09F02114319701A7842F069
:4027400010021A70704700BF834300400122014B1A7070478443004038B504460D46072902D90020FFF7C6FF1F2C02D90020FFF7C1FF04F01F0000F1604000F564406D0173
:40278000EDB2057038BD00BF18484FF47F0102680A43026016486FF07F4102680A400260704714484FF080510160704772B611484FF000610160FFF71DF90F48006800F00A
:4027C000D3F858B10C4800684FF080730B4A0C490FB40FB46FF00600004700BF6FF0060062B6004762B600DF08B0704720ED00E01CED00E004ED00E08084FF1F2928000038
:40280000E5270000EFF30880054908600548006880F3088870470248006880F3088870479082FF1F6082FF1F411C8900154A11440968154A136899421AD0F0B444464D46F6
:4028400056465F46F0B400B5104C9B002344EFF308851D60116089002144096881F3088802BC8E46F0BCA046A946B246BB46F0BC002806DB00B500F06BF802BC8E46FFF74F
:40288000D3BF7047FC3600005484FF1F6482FF1FF0B444464D4656465F46F0B400B5EFF3038308B48000174901440968164A0244EFF30883136088471448804704BC4FF017
:4028C0008070024382F3038801BC8646F0BCA046A946B246BB46F0BC704780000A4901440A6882F3088804BC4FF08070024382F3038808BC9E46F0BCA046A946B246BB4658
:40290000F0BC7047CC3600003C94FF1F312900000230800803D000BF01380046FCD17047EFF3108072B6704780F31088704700BF08B572B6014B1868FFF7CFFF0082FF1FB4
:4029400008B5024B1868FFF7A3FF08BD0082FF1F08B562B6FFF7F4FF72B600F041F8014B186808BD8084FF1F00280BDA20F000400130054B53F82000044B1B68181A18BFEA
:402980000120704701207047FC3600005484FF1F054B53F82020054B53F820309A4201D101207047002070476881FF1F7036000008B5FFF75DF8084B53F8203043B1002263
:4029C000054B43F8202040F00040044B186008BD024B186008BD00BF0084FF1F8084FF1F38B5364B1C680022354B1A60354A52F82430013342F82430334B53F82450204673
:402A0000FFF7C6FF012801D0A54204D103222F4B43F8242003E002222C4B43F824202C4B53F824102B4A136823EA010313602A4B53F82440214B1C60B5F1FF3F0FD0234B63
:402A400053F82530032B07D10222204B43F825200022224B43F825202846FFF76FF8FFF74BF8B0F1FF3F0BD1B4F1FF3F03D00022164B43F8242044F00044194B1C6038BDCE
:402A8000184B53F82020134B1B689A4208D800220E4B43F8242044F00044114B1C6038BD00210A4A42F82010094A52F820201343084A1360FFF77CFF38BD00BF0082FF1FB0
:402AC0007084FF1F6881FF1F2081FF1F1C82FF1F883600005084FF1F0482FF1F3084FF1F8084FF1FB4360000014B1868704700BFF482FF1F0E4B70B51E460E4C0025E41ADB
:402B0000A410A54204D056F8253098470135F8E700F05AFE084B094C1E46E41AA4100025A54204D056F8253098470135F8E770BDD4370000D4370000D4370000DC370000B1
:402B400010B5431E0A44914204D011F8014B03F8014FF8E710BD03460244934202D003F8011BFAE77047000000000000454141204C616231202D204E677579656E20546922
:402B8000656E20416E682048610A00005468652073797374656D20686173206265656E2072657365742064756520746F205761746368446F672054696D65722121210A00D9
:402BC0005468652073797374656D20686173206265656E207265736574207468726F75676820506F776572206F6E20627574746F6E2121210A0000007502000002000000A9
:402C00007502000004000000750200000800000003000000E10100000A0000002D030000640000009D03000010000000010002001504000008000000010000000000010041
:402C40000100010001000100010001000100020002000200020002000200020002000200020002000200030003000300030003000300030004000400040004000400040008
:402C8000050005000500050005000600060006000600070007000700080008000800090009000A000A000A000B000B000C000C000D000D000E000F000F00100011001100E0
:402CC000120013001400150016001700180019001A001B001C001D001F0020002100230024002600280029002B002D002F0031003400360038003B003D0040004300460001
:402D000049004C004F00530057005B005F00630067006C00700075007B00800086008C00920098009F00A600AD00B500BD00C500CE00D700E100EB00F50000010B01170145
:402D4000240130013E014C015B016A017A018B019C01AF01C201D601EA01000217022E02470261027C029802B502D402F402160339035D038303AB03D50300042D045D04E8
:402D80008E04C204F80430056B05A805E8052B067106BA0606075607A90700085B08B9081C098309EF09600AD50A500BD10B560CE20C740D0D0EAC0E520F0010B510731149
:402DC00038120713DF13C014AB15A116A117AD18C419E91A1A1C581DA51E00206B21E52271240E26BD278029562B412D422F5A318933D1353338B03A493D0040D542CB456F
:402E0000E2481C4C7A4FFF52AC56825A845EB3621267A26B66706075927A0080AA85958BC3913798F59EFEA558AD04B508BD66C524CE44D7CCE0C0EA25F5FFFF5541525447
:402E4000207374617274656400000000203A20000FB103053C3CB203053C3CB306053C3C053C3CB40103C003280804C101C0C2020D00C3028D2AC4028DEEC5011A3601C006
:402E8000E0100422070A2E30252A28262E3A00010313E10F16060D2D26232727252D3B000104133A0105290000000000003E5B4F5B3E3E6B4F6B3E1C3E7C3E1C183C7E3C26
:402EC000181C577D571C1C5E7F5E1C00183C1800FFE7C3E7FF0018241800FFE7DBE7FF30483A060E2629792926407F050507407F05253F5A3CE73C5A7F3E1C1C08081C1CC9
:402F00003E7F14227F22145F5F005F5F06097F017F006689956A606060606094A2FFA29408047E040810207E201008082A1C08081C2A08081E101010100C1E0C1E0C3038D0
:402F40003E3830060E3E0E06000000000000005F00000007000700147F147F14242A7F2A12231308646236495620500008070300001C2241000041221C002A1C7F1C2A0829
:402F8000083E080800807030000808080808000060600020100804023E5149453E00427F400072494949462141494D331814127F1027454545393C4A494931412111090793
:402FC0003649494936464949291E0000140000004034000000081422411414141414004122140802015909063E415D594E7C1211127C7F494949363E414141227F41414171
:403000003E7F494949417F090909013E414151737F0808087F00417F41002040413F017F081422417F404040407F021C027F7F0408107F3E4141413E7F090909063E41513C
:40304000215E7F09192946264949493203017F01033F4040403F1F2040201F3F4038403F631408146303047804036159494D43007F4141410204081020004141417F0402FE
:403080000102044040404040000307080020545478407F284444383844444428384444287F385454541800087E090218A4A49C787F0804047800447D40002040403D007F88
:4030C0001028440000417F40007C047804787C080404783844444438FC1824241818242418FC7C08040408485454542404043F44243C4040207C1C2040201C3C4030403CD5
:4031000044281028444C9090907C4464544C4400083641000000770000004136080002010204023C2623263C1EA1A161123A4040207A3854545559215555794122545478C0
:4031400042215554784020545579400C1E5272123955555559395454545939555454580000457C410002457D420001457C407D1211127DF0282528F07C545545002054549C
:403180007C547C0A097F4932494949323A4444443A324A4848303A4141217A3A42402078009DA0A07D3D4242423D3D4040403D3C24FF2424487E4943662B2FFC2F2BFF0997
:4031C00029F620C0887E090320545479410000447D413048484A32384040227A007A0A0A727D0D19317D2629292F28262929292630484D4020380808080808080808382FBF
:4032000010C8ACBA2F102834FA00007B000008142A142222142A14085500550055AA55AA55AAFF55FF55FF000000FF00101010FF00141414FF001010FF00FF1010F010F063
:40324000141414FC001414F700FF0000FF00FF1414F404FC141417101F10101F101F1414141F00101010F0000000001F101010101F10101010F010000000FF10101010107A
:4032800010101010FF10000000FF140000FF00FF00001F10170000FC04F414141710171414F404F40000FF00F714141414141414F700F7141414171410101F101F14141479
:4032C000F4141010F010F000001F101F0000001F14000000FC140000F010F01010FF10FF141414FF141010101F00000000F010FFFFFFFFFFF0F0F0F0F0FFFFFF00000000C1
:4033000000FFFF0F0F0F0F0F3844443844FC4A4A4A347E02020606027E027E0263554941633844443C04407E201E2006027E020299A5E7A5991C2A492A1C4C7201724C303A
:403340004A4D4D303048784830BC625A463D3E494949007E0101017E2A2A2A2A2A44445F444440514A444040444A51400000FF0103E080FF000008086B6B08361236243697
:40338000060F090F06000018180000001010003040FF0101001F01011E00191D1712003C3C3C3C000000000054465400427566666572206F766572666C6F7700467572740E
:4033C000686572207461736B0000000000000000390E0000080000000000000002000000F4330000000000000000000000000000000000000300000005000000000000003B
:40340000E50D00000000000000000000000000000000000000000000000000000000000000000000F10D0000000000000400000000000000020000004C3400000000000016
:40344000000000000000000000000000030000000200000000000000F50D000000000000000000000000000000000000000000000000000000000000000000000000000045
:4034800000000000100000000000000001000000A43400000000000000000000000000000000000002000000150E000000000000020000000000000001000000D0340000F7
:4034C0000000000000000000000000000000000003000000004F00400C0040510040300000000140000480040140800B00140140000800400140000A004C014000020050D1
:403500000140200060520040B40D0048060000040140BC0D00488000FF000101020202020303030303030303040404040404040404040404040404040505050505050505CA
:4035400005050505050505050505050505050505050505050505050506060606060606060606060606060606060606060606060606060606060606060606060606060606E3
:403580000606060606060606060606060606060606060606060606060707070707070707070707070707070707070707070707070707070707070707070707070707070763
:4035C000070707070707070707070707070707070707070707070707070707070707070707070707070707070707070707070707070707070707070707070707070707070B
:4036000007070707070707070707070707070707070707070707070701000000203600000100000001000000020000000100000000000000FFFFFFFF00000000000000008A
:40364000000000000000000000000000102700000100000000000000000000000000000001000000010000000000000001000000010000000100000001000000010000000B
:403680000100000001000000040000000200000010000000200000000200000004000000010000000200000004000000080000001000000004000000020000001000000097
:4036C000200000000200000004000000D9010000650100004D04000021040000550500006505000041290000412900004129000041290000412900004129000000000000AE
:40370000000000000000000001000000020000000000000003000000616C726D5F5469636B356D730000000065765F356D73000065765F6A6F79737469636B5F6F6E4461FE
:403740007461000065765F627265616B706564616C5F6F6E446174610000000065765F73637265656E5F6F6E446174610000000065765F73706565645F6F6E446174610008
:4037800074736B5F6261636B67726F756E64000074736B5F696E69740000000074736B5F696F000074736B5F636F6E74726F6C0074736B5F73797374656D000074736B5F91
:4037C0007466740043000000F8B500BFF8BC08BC9E4670474D00000019120000F8B500BFF8BC08BC9E4670472900000000380000C880FF1F3002000008270000000000009A
:40380000000000000000000000000000A834000000000000000000007C3400000000000000000000543400000000000000000000243400000000000000000000FC330000ED
:403840000000000000000000CC3300001837000000000000FFFFFFFFFFFFFFFFFFFFFFFFFFFFFFFFFFFFFFFFFFFFFFFFFFFFFFFF010000000200000003000000040000000C
:4038800005000000FFFFFFFF020000000100000004000000050000000100000002000000010000000100000001000000010000000100000001000000FFFFFFFFFFFFFFFFFA
:4038C000FFFFFFFFFFFFFFFFFFFFFFFFFFFFFFFFFFFFFFFFFFFFFFFFFFFFFFFFFFFFFFFFFFFFFFFFFFFFFFFFFFFFFFFFFFFFFFFFFFFFFFFFFFFFFFFFFFFFFFFFFFFFFFFF08
:40390000FFFFFFFFFFFFFFFFFFFFFFFFFFFFFFFFFFFFFFFFFFFFFFFFFFFFFFFFFFFFFFFFFFFFFFFFFFFFFFFFFFFFFFFFFFFFFFFFFFFFFFFFFFFFFFFFFFFFFFFFFFFFFFFFC7
:40394000FFFFFFFFFFFFFFFFFFFFFFFFFFFFFFFFFFFFFFFF0300000003000000030000000300000003000000030000002837000030370000443700005C37000070370000CE
:4039800080370000903700009C370000A4370000B0370000BC37000020A2FF1F00000000FC93FF1FF89FFF1FC8A9FF1FFFFFFFFF7F800000030000000000E02EC05D000007
:4039C0001800000000366E01000000000000000000000000000000000000000000000000000000000000000000000000C4370000000000000000000000000000000000000F
:403A000000000000000000000000000000000000000000000000000000000000000000000000000000000000000000009482FF1F0000000000000000000000000000000052
:403A40000000000000000000000000000000000000000000000000000000000000000000000000000000000000000000000000000000000000000000000000000000000046
:403A80000000000000000000000000000000000000000000000000000000000000000000000000000000000000000000000000000000000000000000000000000000000006
:403AC00000000000000000000000000000000000000000000000000000000000000000000000000000000000000000000000000000000000000000000000000000000000C6
:403B00000000000000000000000000000000000000000000000000000000000000000000000000000000000000000000000000000000000000000000000000000000000085
:020000040003F7
:0200000480007A
:40000000024F004008520040015B0040056400400365004023000140340101404D02014048030140100401404405014032060140480701403908014048090140220A014049
:400040004A0B0140560C01404E0D0140420E0140350F01402F1401404C15014032160140471701403A18014046190140601A0140511B01400A400140174101400342014002
:4000800009430140084501400F460140104701400648014004490140134C01400C4D01400C5001400251014001400A3600010103083909AC1028112A78A079802784800143
:4000C000880F8B0F8D0F8F0F8438870F89720104050809200B100D400F8011801340170419011D022110232027012A022B082E012F02300131FF36023B083F015602573286
:40010000580459045B0C5C325D205F01D804D904DC22DF0100800210044006010A4A0B900F981012111014A8168018401A421B402104220228302A902B442F40302231408A
:40014000320434A8384039153F9858045A025B016302681269156B8070207140730279408202842088108F02C085C27FC477CA8FCC7FCE7FD602D808DE08E0030501060273
:4001800008010B010C02100111011402180219011C021D01200121012402280129012E0230023301360138803E405401580459045B0C5C225D205F018001810D85028602C6
:4001C0008708890D8D028F04910D9502970D990D9D0DA801A901AB02AE04B001B202B30FB404B802BB08BE01C010C102C9FFCAFFCBFFCDA0CF04D018D804D904DA04DC0237
:40020000DD01DF01E040E2C0E440E540E6C0E8C0EAC0ECC0EEC00104024003010622070508A10B100C400FA81054112013801421160517021A0C1B0D1D401F012108272091
:4002400029102E022F0830A2310834A1384439103B013E243F10400241105F407F02808083308540874288588A048B088F05910495409608971098A09A019B819C0CA705D1
:40028000AC60AD04AE80B380B440C0EDC2FFC4FFCAA4CCBFCE6FD00CD610DE10E240E410E808EA02EE0894019F01A101AE03AF02B103B202B601D203D302D80CD904DB048B
:4002C000DC92DD20DF0100440101030808040A800B010E10102011101281178019401B191E101F4022052780280429102A022F4130203245378038443911400241104850CF
:400300005110520162A0632067C06D606F027F0286408810891093109444957097C198289B019C029D109E40A304A4E2A510A742AF10B040B604C00FC22DC48FCA95CC1FBB
:40034000CE0FD00CD80EDE10E208EA08EC100A010C012A0130013E01580459045C225F01810184238508860489018A108C018E388F01900891089202940C9633980899011F
:400380009C0A9D01A00AA10CA302A408A602A802A902AA08AB04AC02B00FB101B301B430B50EBA02BB20BF05D409D804D904DB04DF0100400120032004400510064007207F
:4003C0000AA80B010C040D010E800F0810A011101202142015201701184019211E4020042114221129112E8030A03202342C36403701380439503B013F1859045A5261409E
:400400008120920893109444951196809703982899C09A809B219C029D109E02A304A4A2A6A0AB40AD80AE80AF20B301C0F7C27FC47FCA15CCFDCE6FD60FD808E403EA0222
:40044000EE0400010B010F01170119012101340137013E103F404026410345E046BC480E49FF4AFF4BFF4EF04F44500C5401580459045A045B045C225D335F0166C06A40A7
:400480006B028518891C8B228D1C8F21913F9201972399089D10A127A318A704AD04B001B138B31FBB0AD280D804D904DB04DC31DD10DF010502060407010A400C010E10BA
:4004C0000F86141016021A801E08201023402640288029882C122E102F5030A03208330235043682372138183B403C083D043E023FA447284D024F20566057405D025E8864
:400500005F107240810189018A04910692049320961099019A029E08A140A282A303A880A904AD40AE02B210C0D0C2E8C4A0CAFBCCFFCEFED060D220D6F0E004E403E884A6
:40054000EC01EE0406010B0212041301140415021B0421042602300233013401350236043704580459045B045C115F018A018B019A01B101B401BE10D280D407D804D904CA
:40058000DB04DC22DD10DF010210049105080608080109080E900F061020142019821A081E08210822502480260229022C042D0C2E122F0130213204364038013A103B0293
:4005C0003D803E203F025D815E28680169226A047080711576808401851089018B048D1090019320941096A0982199089A329C049E80A020A2C0A303A602AB04AF40B001DC
:40060000B320B602B704C0F4C2FCC424CAF1CC17CEB4D6F0E002E208E4A8EC2402010302060408040E20101016101A021C022240230124082A082E40310232403401363E60
:40064000370138803E404020410649FF4AFF4BFF4DA04F0450185280580459045A045B045C115D115F01604062C06440654066C068C06AC06CC06EC08A01920197019A0230
:400680009B01A602B201B301B402BF04C020C103C5D1C650C702C81BC9FFCAFFCBFFCDAFCE0FCF04D018D407D804D904DA04DB04DC21DD11DF01E040E2C0E440E540E6C0DE
:4006C000E8C0EAC0ECC0EEC000100480050406A00704080109200E840F12102014201521164017401B241C011D601E101F402204274128242B012D013128320238013940FB
:400700003B203C0241284520482049014C0450045108521059015AA87401821088208A428B10908091609204931097A0990C9A409C249D409E029F41A280A303A602AC01A5
:40074000AE82AF03B110B548B610B704C0F2C2FAC4F4CA8ECC07CE8DD026D220D60FE0A1E840EC204010410249FF4AFF4BFF4DA04F045018580459045A045C225D015F01C1
:40078000604062C06440654066C068C06AC06CC06EC082028B018C028F019B029C01AA05B002B201B301B604B702BF04C010C106C5D0C621C705C81EC9FFCAFFCBFFCDAF5A
:4007C000CE0FCF04D018D407D804D904DA04DB04DC21DD11DF01E040E2C0E440E540E6C0E8C0EAC0ECC0EEC001080640070108200BA00E021004128216081E622402268498
:40080000282029402C012E022F103004321234043540372038023B203D803F2A41204340454047404D014F205520564857105D015E688040860487208B108D04C094C28E28
:40084000C44BCADACC77CEF5D01CD220D6F0E010E4800F011F0122012E013001350138083E053F1040424106423045DE46FB47C0482F49FF4AFF4BFF4C224EF04F085004BD
:400880005418580459045A045B045C225D305F0162C0644065016610671168C069016B116C406D016E406F01D804D904DC22DF01031205410730084209040A080F181004BE
:4008C00011801302144C1510170118201B012004280229412B042C042F02310A32443311354037A139903D083F184040411449144A805222538058016004630281068240C4
:400900008540880889408D418F029040912893109420980999109B239D049F80A108A304A6A2A782AD02AF02B508C0B5C26FC45BCA3DCCBFCE6CD007D204D601D80CE005D6
:40094000E609E802EC20EE025608580459045B045C225D905F0180028104820D842985568656870988738A0C8B048C158D0A8E2A8F109020910192409504982099049C602A
:400980009D04A060A160A420A640A840A907AA20AB38AC40AD04B00FB17FB470B902BA02D602D72CD804D904DB04DF010044012207A10A880B010D080F1810A0111012025E
:4009C00014081502168019331B20210229502B802E802F02302031023244340837A1384439113F185D806101670268A269516A8071407202730184018C1090449128920820
:400A00009310955396809703980899809B219D149E02A304A4A2A6A2A720A802AA12AE40AF10C0BFC26BC45FCA1DCCFFCE6FD610D811E202E640E808EE01045C05010602C2
:400A4000086C09010A1111011203162018091A102010241428702A0C301F3260330138083E04580459045C335F018001850C880289048C028D0F8F709002917F97739963C6
:400A80009D08A142A573A70CA91CAB63AC02AD21B002B11CB560B601B70FBB80BE41D602D713D804D904DB04DC32DD30DF0100180212034A05040708086009400A900E48C2
:400AC0000F20101012841340150116201720180219011D081E40211122412608271029822A082B08308032083322370138283B403D1459015A405B4069146B0170B48510A6
:400B00009010934094089610978098119A209C809D8C9E049F28A004A140A280A302A4A0A608A710AA48AC02B240B310C06FC27FC47FCA0FCC8FCE6ED6010014024918011C
:400B40001A26241F281F2C0A2ED130183280340736603E40406241054204440145C0460E480649FF4AFF4BFF4C624DA04EF04F41500C580459045A045C235D035F01664077
:400B8000670269106A306B106D106E106F1284308530860D874A8A308B528F01913093409402952C960C97429B0C9D01A220A304A405A530A638A746A805AA18AB01AD01A8
:400BC000B23CB378B403B50EB701B820B980BA08BB28C003C540C9FFCA07CBFFCC40CD20CEF0CF05D008D804D904DA04DC33DD03DF01E040E1A8E240E320010205140A0408
:400C00000F20100211141410150117281801190A1A041B201D141E082584272828602C102D012F0A3020310232803481351438043A303D083F60400141014310450848405E
:400C400049204A024D01504057108024818082108680886289808C408E20911693409501961098C199209A109B109C209D8E9F28A10AA282A30AA604A730AE01B348B48129
:400C8000B522B64CC068C222C477CAF3CCFDCE76D04DD20CE080E670E802EC30110116803120330836803B023E80C430CC70CE600308048009080F4050015F808380852089
:400CC000868087408C4191019702A520A680A708C0C0C230D480D620E290E440E61091019702B5081B088708A702AB03AD01C610E440E830EE2059205C40614066048204E8
:400D0000D401D606D8011B04260857108420860887208E029D20A840B140C608C801D402E002E80144018201831085208A028B409A029B0A9D20A020A320A710AB0ED00422
:400D4000E004E404250265018D01A702C880D8800302A702B102C0405020520257205B025F4862016602740893409A039B0A9C01A020A202A320D407D607D803DE0410807E
:400D80007C4088809040AC08B001B440C408DE04E601E802EC04000F0101080F0A070B010C0E0E06100D11011A0D1B011C0C003F100A0000808000004000000002400000EF
:400DC00004740009080000400415006A000E020004100060004000000240000000400200020000000203003400000900080F01700200040000020008000050001002000021
:400E0000001D20502BFFFFFF00AF0F04180000004000000004040404010100014000C0004040C000C000C000C000C000000000000000000000000000000000003CC0C000D4
:400E400000030300800040808000800000000000000080202000A0000000000000FFFF00FF00000000BBBB003A0000000423230001000000000100000000000000000000D3
:400E80000000000000000000000000000000000000000000000000000000000000000000000000000000000000000000000000000000000000000000000000000000000032
:400EC00000000000000000000000000000000000000000000000000000000000000000000000000000000000000000000000000000000000000000000000000000000000F2
:400F000000000000000000000000000000000000000000000000000000000000000000000000000000000000000000000000000000000000000000000000000000000000B1
:400F40000000000000000000000000000000000000000000000000000000000000000000000000000000000000000000000000000000000000000000000000000000000071
:0200000490006A
:0400000000004007B5
:0200000490105A
:04000000BC90ACAF55
:0200000490303A
:0200000037B116
:0200000490402A
:4000000000000000000000000000000000000000000000000000000000000000000000000000000000000000000000000000000000000000000000000000000000000000C0
:400040000000000000000000000000000000000000000000000000000000000000000000000000000000000000000000000000000000000000000000000000000000000080
:400080000000000000000000000000000000000000000000000000000000000000000000000000000000000000000000000000000000000000000000000000000000000040
:4000C0000000000000000000000000000000000000000000000000000000000000000000000000000000000000000000000000000000000000000000000000000000000000
:0200000490501A
:0C00000000012E16106900012E2E481A77
:00000001FF